{
	"hands-on-task-intermediate-1/TodoList.sol": {
		"TodoList": {
			"abi": [
				{
					"inputs": [
						{
							"internalType": "string",
							"name": "_text",
							"type": "string"
						}
					],
					"name": "create",
					"outputs": [],
					"stateMutability": "nonpayable",
					"type": "function"
				},
				{
					"inputs": [],
					"name": "get",
					"outputs": [],
					"stateMutability": "nonpayable",
					"type": "function"
				},
				{
					"inputs": [
						{
							"internalType": "uint256",
							"name": "",
							"type": "uint256"
						}
					],
					"name": "todos",
					"outputs": [
						{
							"internalType": "string",
							"name": "text",
							"type": "string"
						},
						{
							"internalType": "bool",
							"name": "completed",
							"type": "bool"
						}
					],
					"stateMutability": "view",
					"type": "function"
				},
				{
					"inputs": [
						{
							"internalType": "uint256",
							"name": "_index",
							"type": "uint256"
						},
						{
							"internalType": "string",
							"name": "",
							"type": "string"
						}
					],
					"name": "updateText",
					"outputs": [],
					"stateMutability": "nonpayable",
					"type": "function"
				}
			],
			"devdoc": {
				"kind": "dev",
				"methods": {},
				"version": 1
			},
			"evm": {
				"assembly": "    /* \"hands-on-task-intermediate-1/TodoList.sol\":60:452  contract TodoList {\r... */\n  mstore(0x40, 0x80)\n  callvalue\n  dup1\n  iszero\n  tag_1\n  jumpi\n  0x00\n  dup1\n  revert\ntag_1:\n  pop\n  dataSize(sub_0)\n  dup1\n  dataOffset(sub_0)\n  0x00\n  codecopy\n  0x00\n  return\nstop\n\nsub_0: assembly {\n        /* \"hands-on-task-intermediate-1/TodoList.sol\":60:452  contract TodoList {\r... */\n      mstore(0x40, 0x80)\n      callvalue\n      dup1\n      iszero\n      tag_1\n      jumpi\n      0x00\n      dup1\n      revert\n    tag_1:\n      pop\n      jumpi(tag_2, lt(calldatasize, 0x04))\n      shr(0xe0, calldataload(0x00))\n      dup1\n      0x6d4ce63c\n      eq\n      tag_3\n      jumpi\n      dup1\n      0xb6a46b3b\n      eq\n      tag_4\n      jumpi\n      dup1\n      0xbc8bc2b4\n      eq\n      tag_5\n      jumpi\n      dup1\n      0xcd111614\n      eq\n      tag_6\n      jumpi\n    tag_2:\n      0x00\n      dup1\n      revert\n        /* \"hands-on-task-intermediate-1/TodoList.sol\":421:447  function get() external {} */\n    tag_3:\n      tag_7\n      tag_8\n      jump\t// in\n    tag_7:\n      stop\n        /* \"hands-on-task-intermediate-1/TodoList.sol\":190:343  function create(string calldata _text) external {\r... */\n    tag_4:\n      tag_9\n      0x04\n      dup1\n      calldatasize\n      sub\n      dup2\n      add\n      swap1\n      tag_10\n      swap2\n      swap1\n      tag_11\n      jump\t// in\n    tag_10:\n      tag_12\n      jump\t// in\n    tag_9:\n      stop\n        /* \"hands-on-task-intermediate-1/TodoList.sol\":162:181  Todo[] public todos */\n    tag_5:\n      tag_13\n      0x04\n      dup1\n      calldatasize\n      sub\n      dup2\n      add\n      swap1\n      tag_14\n      swap2\n      swap1\n      tag_15\n      jump\t// in\n    tag_14:\n      tag_16\n      jump\t// in\n    tag_13:\n      mload(0x40)\n      tag_17\n      swap3\n      swap2\n      swap1\n      tag_18\n      jump\t// in\n    tag_17:\n      mload(0x40)\n      dup1\n      swap2\n      sub\n      swap1\n      return\n        /* \"hands-on-task-intermediate-1/TodoList.sol\":351:413  function updateText(uint _index, string calldata ) external {} */\n    tag_6:\n      tag_19\n      0x04\n      dup1\n      calldatasize\n      sub\n      dup2\n      add\n      swap1\n      tag_20\n      swap2\n      swap1\n      tag_21\n      jump\t// in\n    tag_20:\n      tag_22\n      jump\t// in\n    tag_19:\n      stop\n        /* \"hands-on-task-intermediate-1/TodoList.sol\":421:447  function get() external {} */\n    tag_8:\n      jump\t// out\n        /* \"hands-on-task-intermediate-1/TodoList.sol\":190:343  function create(string calldata _text) external {\r... */\n    tag_12:\n        /* \"hands-on-task-intermediate-1/TodoList.sol\":249:254  todos */\n      0x00\n        /* \"hands-on-task-intermediate-1/TodoList.sol\":260:334  Todo({\r... */\n      mload(0x40)\n      dup1\n      0x40\n      add\n      0x40\n      mstore\n      dup1\n        /* \"hands-on-task-intermediate-1/TodoList.sol\":286:291  _text */\n      dup5\n      dup5\n        /* \"hands-on-task-intermediate-1/TodoList.sol\":260:334  Todo({\r... */\n      dup1\n      dup1\n      0x1f\n      add\n      0x20\n      dup1\n      swap2\n      div\n      mul\n      0x20\n      add\n      mload(0x40)\n      swap1\n      dup2\n      add\n      0x40\n      mstore\n      dup1\n      swap4\n      swap3\n      swap2\n      swap1\n      dup2\n      dup2\n      mstore\n      0x20\n      add\n      dup4\n      dup4\n      dup1\n      dup3\n      dup5\n      calldatacopy\n      0x00\n      dup2\n      dup5\n      add\n      mstore\n      not(0x1f)\n      0x1f\n      dup3\n      add\n      and\n      swap1\n      pop\n      dup1\n      dup4\n      add\n      swap3\n      pop\n      pop\n      pop\n      pop\n      pop\n      pop\n      pop\n      dup2\n      mstore\n      0x20\n      add\n        /* \"hands-on-task-intermediate-1/TodoList.sol\":317:322  false */\n      0x00\n        /* \"hands-on-task-intermediate-1/TodoList.sol\":260:334  Todo({\r... */\n      iszero\n      iszero\n      dup2\n      mstore\n      pop\n        /* \"hands-on-task-intermediate-1/TodoList.sol\":249:335  todos.push(Todo({\r... */\n      swap1\n      dup1\n      0x01\n      dup2\n      sload\n      add\n      dup1\n      dup3\n      sstore\n      dup1\n      swap2\n      pop\n      pop\n      0x01\n      swap1\n      sub\n      swap1\n      0x00\n      mstore\n      keccak256(0x00, 0x20)\n      swap1\n      0x02\n      mul\n      add\n      0x00\n      swap1\n      swap2\n      swap1\n      swap2\n      swap1\n      swap2\n      pop\n      0x00\n      dup3\n      add\n      mload\n      dup2\n      0x00\n      add\n      swap1\n      dup1\n      mload\n      swap1\n      0x20\n      add\n      swap1\n      tag_26\n      swap3\n      swap2\n      swap1\n      tag_27\n      jump\t// in\n    tag_26:\n      pop\n      0x20\n      dup3\n      add\n      mload\n      dup2\n      0x01\n      add\n      exp(0x0100, 0x00)\n      dup2\n      sload\n      dup2\n      0xff\n      mul\n      not\n      and\n      swap1\n      dup4\n      iszero\n      iszero\n      mul\n      or\n      swap1\n      sstore\n      pop\n      pop\n      pop\n        /* \"hands-on-task-intermediate-1/TodoList.sol\":190:343  function create(string calldata _text) external {\r... */\n      pop\n      pop\n      jump\t// out\n        /* \"hands-on-task-intermediate-1/TodoList.sol\":162:181  Todo[] public todos */\n    tag_16:\n      0x00\n      dup2\n      dup2\n      sload\n      dup2\n      lt\n      tag_28\n      jumpi\n      0x00\n      dup1\n      revert\n    tag_28:\n      swap1\n      0x00\n      mstore\n      keccak256(0x00, 0x20)\n      swap1\n      0x02\n      mul\n      add\n      0x00\n      swap2\n      pop\n      swap1\n      pop\n      dup1\n      0x00\n      add\n      dup1\n      sload\n      tag_30\n      swap1\n      tag_31\n      jump\t// in\n    tag_30:\n      dup1\n      0x1f\n      add\n      0x20\n      dup1\n      swap2\n      div\n      mul\n      0x20\n      add\n      mload(0x40)\n      swap1\n      dup2\n      add\n      0x40\n      mstore\n      dup1\n      swap3\n      swap2\n      swap1\n      dup2\n      dup2\n      mstore\n      0x20\n      add\n      dup3\n      dup1\n      sload\n      tag_32\n      swap1\n      tag_31\n      jump\t// in\n    tag_32:\n      dup1\n      iszero\n      tag_33\n      jumpi\n      dup1\n      0x1f\n      lt\n      tag_34\n      jumpi\n      0x0100\n      dup1\n      dup4\n      sload\n      div\n      mul\n      dup4\n      mstore\n      swap2\n      0x20\n      add\n      swap2\n      jump(tag_33)\n    tag_34:\n      dup3\n      add\n      swap2\n      swap1\n      0x00\n      mstore\n      keccak256(0x00, 0x20)\n      swap1\n    tag_35:\n      dup2\n      sload\n      dup2\n      mstore\n      swap1\n      0x01\n      add\n      swap1\n      0x20\n      add\n      dup1\n      dup4\n      gt\n      tag_35\n      jumpi\n      dup3\n      swap1\n      sub\n      0x1f\n      and\n      dup3\n      add\n      swap2\n    tag_33:\n      pop\n      pop\n      pop\n      pop\n      pop\n      swap1\n      dup1\n      0x01\n      add\n      0x00\n      swap1\n      sload\n      swap1\n      0x0100\n      exp\n      swap1\n      div\n      0xff\n      and\n      swap1\n      pop\n      dup3\n      jump\t// out\n        /* \"hands-on-task-intermediate-1/TodoList.sol\":351:413  function updateText(uint _index, string calldata ) external {} */\n    tag_22:\n      pop\n      pop\n      pop\n      jump\t// out\n    tag_27:\n      dup3\n      dup1\n      sload\n      tag_37\n      swap1\n      tag_31\n      jump\t// in\n    tag_37:\n      swap1\n      0x00\n      mstore\n      keccak256(0x00, 0x20)\n      swap1\n      0x1f\n      add\n      0x20\n      swap1\n      div\n      dup2\n      add\n      swap3\n      dup3\n      tag_39\n      jumpi\n      0x00\n      dup6\n      sstore\n      jump(tag_38)\n    tag_39:\n      dup3\n      0x1f\n      lt\n      tag_40\n      jumpi\n      dup1\n      mload\n      not(0xff)\n      and\n      dup4\n      dup1\n      add\n      or\n      dup6\n      sstore\n      jump(tag_38)\n    tag_40:\n      dup3\n      dup1\n      add\n      0x01\n      add\n      dup6\n      sstore\n      dup3\n      iszero\n      tag_38\n      jumpi\n      swap2\n      dup3\n      add\n    tag_41:\n      dup3\n      dup2\n      gt\n      iszero\n      tag_42\n      jumpi\n      dup3\n      mload\n      dup3\n      sstore\n      swap2\n      0x20\n      add\n      swap2\n      swap1\n      0x01\n      add\n      swap1\n      jump(tag_41)\n    tag_42:\n    tag_38:\n      pop\n      swap1\n      pop\n      tag_43\n      swap2\n      swap1\n      tag_44\n      jump\t// in\n    tag_43:\n      pop\n      swap1\n      jump\t// out\n    tag_44:\n    tag_45:\n      dup1\n      dup3\n      gt\n      iszero\n      tag_46\n      jumpi\n      0x00\n      dup2\n      0x00\n      swap1\n      sstore\n      pop\n      0x01\n      add\n      jump(tag_45)\n    tag_46:\n      pop\n      swap1\n      jump\t// out\n        /* \"#utility.yul\":21:574   */\n    tag_48:\n        /* \"#utility.yul\":79:87   */\n      0x00\n        /* \"#utility.yul\":89:95   */\n      dup1\n        /* \"#utility.yul\":139:142   */\n      dup4\n        /* \"#utility.yul\":132:136   */\n      0x1f\n        /* \"#utility.yul\":124:130   */\n      dup5\n        /* \"#utility.yul\":120:137   */\n      add\n        /* \"#utility.yul\":116:143   */\n      slt\n        /* \"#utility.yul\":106:228   */\n      tag_50\n      jumpi\n        /* \"#utility.yul\":147:226   */\n      tag_51\n      tag_52\n      jump\t// in\n    tag_51:\n        /* \"#utility.yul\":106:228   */\n    tag_50:\n        /* \"#utility.yul\":260:266   */\n      dup3\n        /* \"#utility.yul\":247:267   */\n      calldataload\n        /* \"#utility.yul\":237:267   */\n      swap1\n      pop\n        /* \"#utility.yul\":290:308   */\n      0xffffffffffffffff\n        /* \"#utility.yul\":282:288   */\n      dup2\n        /* \"#utility.yul\":279:309   */\n      gt\n        /* \"#utility.yul\":276:393   */\n      iszero\n      tag_53\n      jumpi\n        /* \"#utility.yul\":312:391   */\n      tag_54\n      tag_55\n      jump\t// in\n    tag_54:\n        /* \"#utility.yul\":276:393   */\n    tag_53:\n        /* \"#utility.yul\":426:430   */\n      0x20\n        /* \"#utility.yul\":418:424   */\n      dup4\n        /* \"#utility.yul\":414:431   */\n      add\n        /* \"#utility.yul\":402:431   */\n      swap2\n      pop\n        /* \"#utility.yul\":480:483   */\n      dup4\n        /* \"#utility.yul\":472:476   */\n      0x01\n        /* \"#utility.yul\":464:470   */\n      dup3\n        /* \"#utility.yul\":460:477   */\n      mul\n        /* \"#utility.yul\":450:458   */\n      dup4\n        /* \"#utility.yul\":446:478   */\n      add\n        /* \"#utility.yul\":443:484   */\n      gt\n        /* \"#utility.yul\":440:568   */\n      iszero\n      tag_56\n      jumpi\n        /* \"#utility.yul\":487:566   */\n      tag_57\n      tag_58\n      jump\t// in\n    tag_57:\n        /* \"#utility.yul\":440:568   */\n    tag_56:\n        /* \"#utility.yul\":21:574   */\n      swap3\n      pop\n      swap3\n      swap1\n      pop\n      jump\t// out\n        /* \"#utility.yul\":580:719   */\n    tag_59:\n        /* \"#utility.yul\":626:631   */\n      0x00\n        /* \"#utility.yul\":664:670   */\n      dup2\n        /* \"#utility.yul\":651:671   */\n      calldataload\n        /* \"#utility.yul\":642:671   */\n      swap1\n      pop\n        /* \"#utility.yul\":680:713   */\n      tag_61\n        /* \"#utility.yul\":707:712   */\n      dup2\n        /* \"#utility.yul\":680:713   */\n      tag_62\n      jump\t// in\n    tag_61:\n        /* \"#utility.yul\":580:719   */\n      swap3\n      swap2\n      pop\n      pop\n      jump\t// out\n        /* \"#utility.yul\":725:1254   */\n    tag_11:\n        /* \"#utility.yul\":796:802   */\n      0x00\n        /* \"#utility.yul\":804:810   */\n      dup1\n        /* \"#utility.yul\":853:855   */\n      0x20\n        /* \"#utility.yul\":841:850   */\n      dup4\n        /* \"#utility.yul\":832:839   */\n      dup6\n        /* \"#utility.yul\":828:851   */\n      sub\n        /* \"#utility.yul\":824:856   */\n      slt\n        /* \"#utility.yul\":821:940   */\n      iszero\n      tag_64\n      jumpi\n        /* \"#utility.yul\":859:938   */\n      tag_65\n      tag_66\n      jump\t// in\n    tag_65:\n        /* \"#utility.yul\":821:940   */\n    tag_64:\n        /* \"#utility.yul\":1007:1008   */\n      0x00\n        /* \"#utility.yul\":996:1005   */\n      dup4\n        /* \"#utility.yul\":992:1009   */\n      add\n        /* \"#utility.yul\":979:1010   */\n      calldataload\n        /* \"#utility.yul\":1037:1055   */\n      0xffffffffffffffff\n        /* \"#utility.yul\":1029:1035   */\n      dup2\n        /* \"#utility.yul\":1026:1056   */\n      gt\n        /* \"#utility.yul\":1023:1140   */\n      iszero\n      tag_67\n      jumpi\n        /* \"#utility.yul\":1059:1138   */\n      tag_68\n      tag_69\n      jump\t// in\n    tag_68:\n        /* \"#utility.yul\":1023:1140   */\n    tag_67:\n        /* \"#utility.yul\":1172:1237   */\n      tag_70\n        /* \"#utility.yul\":1229:1236   */\n      dup6\n        /* \"#utility.yul\":1220:1226   */\n      dup3\n        /* \"#utility.yul\":1209:1218   */\n      dup7\n        /* \"#utility.yul\":1205:1227   */\n      add\n        /* \"#utility.yul\":1172:1237   */\n      tag_48\n      jump\t// in\n    tag_70:\n        /* \"#utility.yul\":1154:1237   */\n      swap3\n      pop\n      swap3\n      pop\n        /* \"#utility.yul\":950:1247   */\n      pop\n        /* \"#utility.yul\":725:1254   */\n      swap3\n      pop\n      swap3\n      swap1\n      pop\n      jump\t// out\n        /* \"#utility.yul\":1260:1589   */\n    tag_15:\n        /* \"#utility.yul\":1319:1325   */\n      0x00\n        /* \"#utility.yul\":1368:1370   */\n      0x20\n        /* \"#utility.yul\":1356:1365   */\n      dup3\n        /* \"#utility.yul\":1347:1354   */\n      dup5\n        /* \"#utility.yul\":1343:1366   */\n      sub\n        /* \"#utility.yul\":1339:1371   */\n      slt\n        /* \"#utility.yul\":1336:1455   */\n      iszero\n      tag_72\n      jumpi\n        /* \"#utility.yul\":1374:1453   */\n      tag_73\n      tag_66\n      jump\t// in\n    tag_73:\n        /* \"#utility.yul\":1336:1455   */\n    tag_72:\n        /* \"#utility.yul\":1494:1495   */\n      0x00\n        /* \"#utility.yul\":1519:1572   */\n      tag_74\n        /* \"#utility.yul\":1564:1571   */\n      dup5\n        /* \"#utility.yul\":1555:1561   */\n      dup3\n        /* \"#utility.yul\":1544:1553   */\n      dup6\n        /* \"#utility.yul\":1540:1562   */\n      add\n        /* \"#utility.yul\":1519:1572   */\n      tag_59\n      jump\t// in\n    tag_74:\n        /* \"#utility.yul\":1509:1572   */\n      swap2\n      pop\n        /* \"#utility.yul\":1465:1582   */\n      pop\n        /* \"#utility.yul\":1260:1589   */\n      swap3\n      swap2\n      pop\n      pop\n      jump\t// out\n        /* \"#utility.yul\":1595:2269   */\n    tag_21:\n        /* \"#utility.yul\":1675:1681   */\n      0x00\n        /* \"#utility.yul\":1683:1689   */\n      dup1\n        /* \"#utility.yul\":1691:1697   */\n      0x00\n        /* \"#utility.yul\":1740:1742   */\n      0x40\n        /* \"#utility.yul\":1728:1737   */\n      dup5\n        /* \"#utility.yul\":1719:1726   */\n      dup7\n        /* \"#utility.yul\":1715:1738   */\n      sub\n        /* \"#utility.yul\":1711:1743   */\n      slt\n        /* \"#utility.yul\":1708:1827   */\n      iszero\n      tag_76\n      jumpi\n        /* \"#utility.yul\":1746:1825   */\n      tag_77\n      tag_66\n      jump\t// in\n    tag_77:\n        /* \"#utility.yul\":1708:1827   */\n    tag_76:\n        /* \"#utility.yul\":1866:1867   */\n      0x00\n        /* \"#utility.yul\":1891:1944   */\n      tag_78\n        /* \"#utility.yul\":1936:1943   */\n      dup7\n        /* \"#utility.yul\":1927:1933   */\n      dup3\n        /* \"#utility.yul\":1916:1925   */\n      dup8\n        /* \"#utility.yul\":1912:1934   */\n      add\n        /* \"#utility.yul\":1891:1944   */\n      tag_59\n      jump\t// in\n    tag_78:\n        /* \"#utility.yul\":1881:1944   */\n      swap4\n      pop\n        /* \"#utility.yul\":1837:1954   */\n      pop\n        /* \"#utility.yul\":2021:2023   */\n      0x20\n        /* \"#utility.yul\":2010:2019   */\n      dup5\n        /* \"#utility.yul\":2006:2024   */\n      add\n        /* \"#utility.yul\":1993:2025   */\n      calldataload\n        /* \"#utility.yul\":2052:2070   */\n      0xffffffffffffffff\n        /* \"#utility.yul\":2044:2050   */\n      dup2\n        /* \"#utility.yul\":2041:2071   */\n      gt\n        /* \"#utility.yul\":2038:2155   */\n      iszero\n      tag_79\n      jumpi\n        /* \"#utility.yul\":2074:2153   */\n      tag_80\n      tag_69\n      jump\t// in\n    tag_80:\n        /* \"#utility.yul\":2038:2155   */\n    tag_79:\n        /* \"#utility.yul\":2187:2252   */\n      tag_81\n        /* \"#utility.yul\":2244:2251   */\n      dup7\n        /* \"#utility.yul\":2235:2241   */\n      dup3\n        /* \"#utility.yul\":2224:2233   */\n      dup8\n        /* \"#utility.yul\":2220:2242   */\n      add\n        /* \"#utility.yul\":2187:2252   */\n      tag_48\n      jump\t// in\n    tag_81:\n        /* \"#utility.yul\":2169:2252   */\n      swap3\n      pop\n      swap3\n      pop\n        /* \"#utility.yul\":1964:2262   */\n      pop\n        /* \"#utility.yul\":1595:2269   */\n      swap3\n      pop\n      swap3\n      pop\n      swap3\n      jump\t// out\n        /* \"#utility.yul\":2275:2384   */\n    tag_82:\n        /* \"#utility.yul\":2356:2377   */\n      tag_84\n        /* \"#utility.yul\":2371:2376   */\n      dup2\n        /* \"#utility.yul\":2356:2377   */\n      tag_85\n      jump\t// in\n    tag_84:\n        /* \"#utility.yul\":2351:2354   */\n      dup3\n        /* \"#utility.yul\":2344:2378   */\n      mstore\n        /* \"#utility.yul\":2275:2384   */\n      pop\n      pop\n      jump\t// out\n        /* \"#utility.yul\":2390:2754   */\n    tag_86:\n        /* \"#utility.yul\":2478:2481   */\n      0x00\n        /* \"#utility.yul\":2506:2545   */\n      tag_88\n        /* \"#utility.yul\":2539:2544   */\n      dup3\n        /* \"#utility.yul\":2506:2545   */\n      tag_89\n      jump\t// in\n    tag_88:\n        /* \"#utility.yul\":2561:2632   */\n      tag_90\n        /* \"#utility.yul\":2625:2631   */\n      dup2\n        /* \"#utility.yul\":2620:2623   */\n      dup6\n        /* \"#utility.yul\":2561:2632   */\n      tag_91\n      jump\t// in\n    tag_90:\n        /* \"#utility.yul\":2554:2632   */\n      swap4\n      pop\n        /* \"#utility.yul\":2641:2693   */\n      tag_92\n        /* \"#utility.yul\":2686:2692   */\n      dup2\n        /* \"#utility.yul\":2681:2684   */\n      dup6\n        /* \"#utility.yul\":2674:2678   */\n      0x20\n        /* \"#utility.yul\":2667:2672   */\n      dup7\n        /* \"#utility.yul\":2663:2679   */\n      add\n        /* \"#utility.yul\":2641:2693   */\n      tag_93\n      jump\t// in\n    tag_92:\n        /* \"#utility.yul\":2718:2747   */\n      tag_94\n        /* \"#utility.yul\":2740:2746   */\n      dup2\n        /* \"#utility.yul\":2718:2747   */\n      tag_95\n      jump\t// in\n    tag_94:\n        /* \"#utility.yul\":2713:2716   */\n      dup5\n        /* \"#utility.yul\":2709:2748   */\n      add\n        /* \"#utility.yul\":2702:2748   */\n      swap2\n      pop\n        /* \"#utility.yul\":2482:2754   */\n      pop\n        /* \"#utility.yul\":2390:2754   */\n      swap3\n      swap2\n      pop\n      pop\n      jump\t// out\n        /* \"#utility.yul\":2760:3171   */\n    tag_18:\n        /* \"#utility.yul\":2895:2899   */\n      0x00\n        /* \"#utility.yul\":2933:2935   */\n      0x40\n        /* \"#utility.yul\":2922:2931   */\n      dup3\n        /* \"#utility.yul\":2918:2936   */\n      add\n        /* \"#utility.yul\":2910:2936   */\n      swap1\n      pop\n        /* \"#utility.yul\":2982:2991   */\n      dup2\n        /* \"#utility.yul\":2976:2980   */\n      dup2\n        /* \"#utility.yul\":2972:2992   */\n      sub\n        /* \"#utility.yul\":2968:2969   */\n      0x00\n        /* \"#utility.yul\":2957:2966   */\n      dup4\n        /* \"#utility.yul\":2953:2970   */\n      add\n        /* \"#utility.yul\":2946:2993   */\n      mstore\n        /* \"#utility.yul\":3010:3088   */\n      tag_97\n        /* \"#utility.yul\":3083:3087   */\n      dup2\n        /* \"#utility.yul\":3074:3080   */\n      dup6\n        /* \"#utility.yul\":3010:3088   */\n      tag_86\n      jump\t// in\n    tag_97:\n        /* \"#utility.yul\":3002:3088   */\n      swap1\n      pop\n        /* \"#utility.yul\":3098:3164   */\n      tag_98\n        /* \"#utility.yul\":3160:3162   */\n      0x20\n        /* \"#utility.yul\":3149:3158   */\n      dup4\n        /* \"#utility.yul\":3145:3163   */\n      add\n        /* \"#utility.yul\":3136:3142   */\n      dup5\n        /* \"#utility.yul\":3098:3164   */\n      tag_82\n      jump\t// in\n    tag_98:\n        /* \"#utility.yul\":2760:3171   */\n      swap4\n      swap3\n      pop\n      pop\n      pop\n      jump\t// out\n        /* \"#utility.yul\":3258:3357   */\n    tag_89:\n        /* \"#utility.yul\":3310:3316   */\n      0x00\n        /* \"#utility.yul\":3344:3349   */\n      dup2\n        /* \"#utility.yul\":3338:3350   */\n      mload\n        /* \"#utility.yul\":3328:3350   */\n      swap1\n      pop\n        /* \"#utility.yul\":3258:3357   */\n      swap2\n      swap1\n      pop\n      jump\t// out\n        /* \"#utility.yul\":3363:3532   */\n    tag_91:\n        /* \"#utility.yul\":3447:3458   */\n      0x00\n        /* \"#utility.yul\":3481:3487   */\n      dup3\n        /* \"#utility.yul\":3476:3479   */\n      dup3\n        /* \"#utility.yul\":3469:3488   */\n      mstore\n        /* \"#utility.yul\":3521:3525   */\n      0x20\n        /* \"#utility.yul\":3516:3519   */\n      dup3\n        /* \"#utility.yul\":3512:3526   */\n      add\n        /* \"#utility.yul\":3497:3526   */\n      swap1\n      pop\n        /* \"#utility.yul\":3363:3532   */\n      swap3\n      swap2\n      pop\n      pop\n      jump\t// out\n        /* \"#utility.yul\":3538:3628   */\n    tag_85:\n        /* \"#utility.yul\":3572:3579   */\n      0x00\n        /* \"#utility.yul\":3615:3620   */\n      dup2\n        /* \"#utility.yul\":3608:3621   */\n      iszero\n        /* \"#utility.yul\":3601:3622   */\n      iszero\n        /* \"#utility.yul\":3590:3622   */\n      swap1\n      pop\n        /* \"#utility.yul\":3538:3628   */\n      swap2\n      swap1\n      pop\n      jump\t// out\n        /* \"#utility.yul\":3634:3711   */\n    tag_104:\n        /* \"#utility.yul\":3671:3678   */\n      0x00\n        /* \"#utility.yul\":3700:3705   */\n      dup2\n        /* \"#utility.yul\":3689:3705   */\n      swap1\n      pop\n        /* \"#utility.yul\":3634:3711   */\n      swap2\n      swap1\n      pop\n      jump\t// out\n        /* \"#utility.yul\":3717:4024   */\n    tag_93:\n        /* \"#utility.yul\":3785:3786   */\n      0x00\n        /* \"#utility.yul\":3795:3908   */\n    tag_107:\n        /* \"#utility.yul\":3809:3815   */\n      dup4\n        /* \"#utility.yul\":3806:3807   */\n      dup2\n        /* \"#utility.yul\":3803:3816   */\n      lt\n        /* \"#utility.yul\":3795:3908   */\n      iszero\n      tag_109\n      jumpi\n        /* \"#utility.yul\":3894:3895   */\n      dup1\n        /* \"#utility.yul\":3889:3892   */\n      dup3\n        /* \"#utility.yul\":3885:3896   */\n      add\n        /* \"#utility.yul\":3879:3897   */\n      mload\n        /* \"#utility.yul\":3875:3876   */\n      dup2\n        /* \"#utility.yul\":3870:3873   */\n      dup5\n        /* \"#utility.yul\":3866:3877   */\n      add\n        /* \"#utility.yul\":3859:3898   */\n      mstore\n        /* \"#utility.yul\":3831:3833   */\n      0x20\n        /* \"#utility.yul\":3828:3829   */\n      dup2\n        /* \"#utility.yul\":3824:3834   */\n      add\n        /* \"#utility.yul\":3819:3834   */\n      swap1\n      pop\n        /* \"#utility.yul\":3795:3908   */\n      jump(tag_107)\n    tag_109:\n        /* \"#utility.yul\":3926:3932   */\n      dup4\n        /* \"#utility.yul\":3923:3924   */\n      dup2\n        /* \"#utility.yul\":3920:3933   */\n      gt\n        /* \"#utility.yul\":3917:4018   */\n      iszero\n      tag_110\n      jumpi\n        /* \"#utility.yul\":4006:4007   */\n      0x00\n        /* \"#utility.yul\":3997:4003   */\n      dup5\n        /* \"#utility.yul\":3992:3995   */\n      dup5\n        /* \"#utility.yul\":3988:4004   */\n      add\n        /* \"#utility.yul\":3981:4008   */\n      mstore\n        /* \"#utility.yul\":3917:4018   */\n    tag_110:\n        /* \"#utility.yul\":3766:4024   */\n      pop\n        /* \"#utility.yul\":3717:4024   */\n      pop\n      pop\n      pop\n      jump\t// out\n        /* \"#utility.yul\":4030:4350   */\n    tag_31:\n        /* \"#utility.yul\":4074:4080   */\n      0x00\n        /* \"#utility.yul\":4111:4112   */\n      0x02\n        /* \"#utility.yul\":4105:4109   */\n      dup3\n        /* \"#utility.yul\":4101:4113   */\n      div\n        /* \"#utility.yul\":4091:4113   */\n      swap1\n      pop\n        /* \"#utility.yul\":4158:4159   */\n      0x01\n        /* \"#utility.yul\":4152:4156   */\n      dup3\n        /* \"#utility.yul\":4148:4160   */\n      and\n        /* \"#utility.yul\":4179:4197   */\n      dup1\n        /* \"#utility.yul\":4169:4250   */\n      tag_112\n      jumpi\n        /* \"#utility.yul\":4235:4239   */\n      0x7f\n        /* \"#utility.yul\":4227:4233   */\n      dup3\n        /* \"#utility.yul\":4223:4240   */\n      and\n        /* \"#utility.yul\":4213:4240   */\n      swap2\n      pop\n        /* \"#utility.yul\":4169:4250   */\n    tag_112:\n        /* \"#utility.yul\":4297:4299   */\n      0x20\n        /* \"#utility.yul\":4289:4295   */\n      dup3\n        /* \"#utility.yul\":4286:4300   */\n      lt\n        /* \"#utility.yul\":4266:4284   */\n      dup2\n        /* \"#utility.yul\":4263:4301   */\n      eq\n        /* \"#utility.yul\":4260:4344   */\n      iszero\n      tag_113\n      jumpi\n        /* \"#utility.yul\":4316:4334   */\n      tag_114\n      tag_115\n      jump\t// in\n    tag_114:\n        /* \"#utility.yul\":4260:4344   */\n    tag_113:\n        /* \"#utility.yul\":4081:4350   */\n      pop\n        /* \"#utility.yul\":4030:4350   */\n      swap2\n      swap1\n      pop\n      jump\t// out\n        /* \"#utility.yul\":4356:4536   */\n    tag_115:\n        /* \"#utility.yul\":4404:4481   */\n      0x4e487b7100000000000000000000000000000000000000000000000000000000\n        /* \"#utility.yul\":4401:4402   */\n      0x00\n        /* \"#utility.yul\":4394:4482   */\n      mstore\n        /* \"#utility.yul\":4501:4505   */\n      0x22\n        /* \"#utility.yul\":4498:4499   */\n      0x04\n        /* \"#utility.yul\":4491:4506   */\n      mstore\n        /* \"#utility.yul\":4525:4529   */\n      0x24\n        /* \"#utility.yul\":4522:4523   */\n      0x00\n        /* \"#utility.yul\":4515:4530   */\n      revert\n        /* \"#utility.yul\":4542:4659   */\n    tag_55:\n        /* \"#utility.yul\":4651:4652   */\n      0x00\n        /* \"#utility.yul\":4648:4649   */\n      dup1\n        /* \"#utility.yul\":4641:4653   */\n      revert\n        /* \"#utility.yul\":4665:4782   */\n    tag_52:\n        /* \"#utility.yul\":4774:4775   */\n      0x00\n        /* \"#utility.yul\":4771:4772   */\n      dup1\n        /* \"#utility.yul\":4764:4776   */\n      revert\n        /* \"#utility.yul\":4788:4905   */\n    tag_58:\n        /* \"#utility.yul\":4897:4898   */\n      0x00\n        /* \"#utility.yul\":4894:4895   */\n      dup1\n        /* \"#utility.yul\":4887:4899   */\n      revert\n        /* \"#utility.yul\":4911:5028   */\n    tag_69:\n        /* \"#utility.yul\":5020:5021   */\n      0x00\n        /* \"#utility.yul\":5017:5018   */\n      dup1\n        /* \"#utility.yul\":5010:5022   */\n      revert\n        /* \"#utility.yul\":5034:5151   */\n    tag_66:\n        /* \"#utility.yul\":5143:5144   */\n      0x00\n        /* \"#utility.yul\":5140:5141   */\n      dup1\n        /* \"#utility.yul\":5133:5145   */\n      revert\n        /* \"#utility.yul\":5157:5259   */\n    tag_95:\n        /* \"#utility.yul\":5198:5204   */\n      0x00\n        /* \"#utility.yul\":5249:5251   */\n      0x1f\n        /* \"#utility.yul\":5245:5252   */\n      not\n        /* \"#utility.yul\":5240:5242   */\n      0x1f\n        /* \"#utility.yul\":5233:5238   */\n      dup4\n        /* \"#utility.yul\":5229:5243   */\n      add\n        /* \"#utility.yul\":5225:5253   */\n      and\n        /* \"#utility.yul\":5215:5253   */\n      swap1\n      pop\n        /* \"#utility.yul\":5157:5259   */\n      swap2\n      swap1\n      pop\n      jump\t// out\n        /* \"#utility.yul\":5265:5387   */\n    tag_62:\n        /* \"#utility.yul\":5338:5362   */\n      tag_124\n        /* \"#utility.yul\":5356:5361   */\n      dup2\n        /* \"#utility.yul\":5338:5362   */\n      tag_104\n      jump\t// in\n    tag_124:\n        /* \"#utility.yul\":5331:5336   */\n      dup2\n        /* \"#utility.yul\":5328:5363   */\n      eq\n        /* \"#utility.yul\":5318:5381   */\n      tag_125\n      jumpi\n        /* \"#utility.yul\":5377:5378   */\n      0x00\n        /* \"#utility.yul\":5374:5375   */\n      dup1\n        /* \"#utility.yul\":5367:5379   */\n      revert\n        /* \"#utility.yul\":5318:5381   */\n    tag_125:\n        /* \"#utility.yul\":5265:5387   */\n      pop\n      jump\t// out\n\n    auxdata: 0xa264697066735822122092780777e6c5757e379b37d6bd903a384a71c7dd5d6a8cb55d0a12e1ed7c532e64736f6c63430008070033\n}\n",
				"bytecode": {
					"linkReferences": {},
					"object": "608060405234801561001057600080fd5b506105fb806100206000396000f3fe608060405234801561001057600080fd5b506004361061004c5760003560e01c80636d4ce63c14610051578063b6a46b3b1461005b578063bc8bc2b414610077578063cd111614146100a8575b600080fd5b6100596100c4565b005b6100756004803603810190610070919061036c565b6100c6565b005b610091600480360381019061008c91906103b9565b610190565b60405161009f92919061048e565b60405180910390f35b6100c260048036038101906100bd91906103e6565b610259565b005b565b6000604051806040016040528084848080601f016020809104026020016040519081016040528093929190818152602001838380828437600081840152601f19601f820116905080830192505050505050508152602001600015158152509080600181540180825580915050600190039060005260206000209060020201600090919091909150600082015181600001908051906020019061016992919061025e565b5060208201518160010160006101000a81548160ff02191690831515021790555050505050565b600081815481106101a057600080fd5b90600052602060002090600202016000915090508060000180546101c390610523565b80601f01602080910402602001604051908101604052809291908181526020018280546101ef90610523565b801561023c5780601f106102115761010080835404028352916020019161023c565b820191906000526020600020905b81548152906001019060200180831161021f57829003601f168201915b5050505050908060010160009054906101000a900460ff16905082565b505050565b82805461026a90610523565b90600052602060002090601f01602090048101928261028c57600085556102d3565b82601f106102a557805160ff19168380011785556102d3565b828001600101855582156102d3579182015b828111156102d25782518255916020019190600101906102b7565b5b5090506102e091906102e4565b5090565b5b808211156102fd5760008160009055506001016102e5565b5090565b60008083601f84011261031757610316610589565b5b8235905067ffffffffffffffff81111561033457610333610584565b5b6020830191508360018202830111156103505761034f61058e565b5b9250929050565b600081359050610366816105ae565b92915050565b6000806020838503121561038357610382610598565b5b600083013567ffffffffffffffff8111156103a1576103a0610593565b5b6103ad85828601610301565b92509250509250929050565b6000602082840312156103cf576103ce610598565b5b60006103dd84828501610357565b91505092915050565b6000806000604084860312156103ff576103fe610598565b5b600061040d86828701610357565b935050602084013567ffffffffffffffff81111561042e5761042d610593565b5b61043a86828701610301565b92509250509250925092565b61044f816104da565b82525050565b6000610460826104be565b61046a81856104c9565b935061047a8185602086016104f0565b6104838161059d565b840191505092915050565b600060408201905081810360008301526104a88185610455565b90506104b76020830184610446565b9392505050565b600081519050919050565b600082825260208201905092915050565b60008115159050919050565b6000819050919050565b60005b8381101561050e5780820151818401526020810190506104f3565b8381111561051d576000848401525b50505050565b6000600282049050600182168061053b57607f821691505b6020821081141561054f5761054e610555565b5b50919050565b7f4e487b7100000000000000000000000000000000000000000000000000000000600052602260045260246000fd5b600080fd5b600080fd5b600080fd5b600080fd5b600080fd5b6000601f19601f8301169050919050565b6105b7816104e6565b81146105c257600080fd5b5056fea264697066735822122092780777e6c5757e379b37d6bd903a384a71c7dd5d6a8cb55d0a12e1ed7c532e64736f6c63430008070033",
					"opcodes": "PUSH1 0x80 PUSH1 0x40 MSTORE CALLVALUE DUP1 ISZERO PUSH2 0x10 JUMPI PUSH1 0x0 DUP1 REVERT JUMPDEST POP PUSH2 0x5FB DUP1 PUSH2 0x20 PUSH1 0x0 CODECOPY PUSH1 0x0 RETURN INVALID PUSH1 0x80 PUSH1 0x40 MSTORE CALLVALUE DUP1 ISZERO PUSH2 0x10 JUMPI PUSH1 0x0 DUP1 REVERT JUMPDEST POP PUSH1 0x4 CALLDATASIZE LT PUSH2 0x4C JUMPI PUSH1 0x0 CALLDATALOAD PUSH1 0xE0 SHR DUP1 PUSH4 0x6D4CE63C EQ PUSH2 0x51 JUMPI DUP1 PUSH4 0xB6A46B3B EQ PUSH2 0x5B JUMPI DUP1 PUSH4 0xBC8BC2B4 EQ PUSH2 0x77 JUMPI DUP1 PUSH4 0xCD111614 EQ PUSH2 0xA8 JUMPI JUMPDEST PUSH1 0x0 DUP1 REVERT JUMPDEST PUSH2 0x59 PUSH2 0xC4 JUMP JUMPDEST STOP JUMPDEST PUSH2 0x75 PUSH1 0x4 DUP1 CALLDATASIZE SUB DUP2 ADD SWAP1 PUSH2 0x70 SWAP2 SWAP1 PUSH2 0x36C JUMP JUMPDEST PUSH2 0xC6 JUMP JUMPDEST STOP JUMPDEST PUSH2 0x91 PUSH1 0x4 DUP1 CALLDATASIZE SUB DUP2 ADD SWAP1 PUSH2 0x8C SWAP2 SWAP1 PUSH2 0x3B9 JUMP JUMPDEST PUSH2 0x190 JUMP JUMPDEST PUSH1 0x40 MLOAD PUSH2 0x9F SWAP3 SWAP2 SWAP1 PUSH2 0x48E JUMP JUMPDEST PUSH1 0x40 MLOAD DUP1 SWAP2 SUB SWAP1 RETURN JUMPDEST PUSH2 0xC2 PUSH1 0x4 DUP1 CALLDATASIZE SUB DUP2 ADD SWAP1 PUSH2 0xBD SWAP2 SWAP1 PUSH2 0x3E6 JUMP JUMPDEST PUSH2 0x259 JUMP JUMPDEST STOP JUMPDEST JUMP JUMPDEST PUSH1 0x0 PUSH1 0x40 MLOAD DUP1 PUSH1 0x40 ADD PUSH1 0x40 MSTORE DUP1 DUP5 DUP5 DUP1 DUP1 PUSH1 0x1F ADD PUSH1 0x20 DUP1 SWAP2 DIV MUL PUSH1 0x20 ADD PUSH1 0x40 MLOAD SWAP1 DUP2 ADD PUSH1 0x40 MSTORE DUP1 SWAP4 SWAP3 SWAP2 SWAP1 DUP2 DUP2 MSTORE PUSH1 0x20 ADD DUP4 DUP4 DUP1 DUP3 DUP5 CALLDATACOPY PUSH1 0x0 DUP2 DUP5 ADD MSTORE PUSH1 0x1F NOT PUSH1 0x1F DUP3 ADD AND SWAP1 POP DUP1 DUP4 ADD SWAP3 POP POP POP POP POP POP POP DUP2 MSTORE PUSH1 0x20 ADD PUSH1 0x0 ISZERO ISZERO DUP2 MSTORE POP SWAP1 DUP1 PUSH1 0x1 DUP2 SLOAD ADD DUP1 DUP3 SSTORE DUP1 SWAP2 POP POP PUSH1 0x1 SWAP1 SUB SWAP1 PUSH1 0x0 MSTORE PUSH1 0x20 PUSH1 0x0 KECCAK256 SWAP1 PUSH1 0x2 MUL ADD PUSH1 0x0 SWAP1 SWAP2 SWAP1 SWAP2 SWAP1 SWAP2 POP PUSH1 0x0 DUP3 ADD MLOAD DUP2 PUSH1 0x0 ADD SWAP1 DUP1 MLOAD SWAP1 PUSH1 0x20 ADD SWAP1 PUSH2 0x169 SWAP3 SWAP2 SWAP1 PUSH2 0x25E JUMP JUMPDEST POP PUSH1 0x20 DUP3 ADD MLOAD DUP2 PUSH1 0x1 ADD PUSH1 0x0 PUSH2 0x100 EXP DUP2 SLOAD DUP2 PUSH1 0xFF MUL NOT AND SWAP1 DUP4 ISZERO ISZERO MUL OR SWAP1 SSTORE POP POP POP POP POP JUMP JUMPDEST PUSH1 0x0 DUP2 DUP2 SLOAD DUP2 LT PUSH2 0x1A0 JUMPI PUSH1 0x0 DUP1 REVERT JUMPDEST SWAP1 PUSH1 0x0 MSTORE PUSH1 0x20 PUSH1 0x0 KECCAK256 SWAP1 PUSH1 0x2 MUL ADD PUSH1 0x0 SWAP2 POP SWAP1 POP DUP1 PUSH1 0x0 ADD DUP1 SLOAD PUSH2 0x1C3 SWAP1 PUSH2 0x523 JUMP JUMPDEST DUP1 PUSH1 0x1F ADD PUSH1 0x20 DUP1 SWAP2 DIV MUL PUSH1 0x20 ADD PUSH1 0x40 MLOAD SWAP1 DUP2 ADD PUSH1 0x40 MSTORE DUP1 SWAP3 SWAP2 SWAP1 DUP2 DUP2 MSTORE PUSH1 0x20 ADD DUP3 DUP1 SLOAD PUSH2 0x1EF SWAP1 PUSH2 0x523 JUMP JUMPDEST DUP1 ISZERO PUSH2 0x23C JUMPI DUP1 PUSH1 0x1F LT PUSH2 0x211 JUMPI PUSH2 0x100 DUP1 DUP4 SLOAD DIV MUL DUP4 MSTORE SWAP2 PUSH1 0x20 ADD SWAP2 PUSH2 0x23C JUMP JUMPDEST DUP3 ADD SWAP2 SWAP1 PUSH1 0x0 MSTORE PUSH1 0x20 PUSH1 0x0 KECCAK256 SWAP1 JUMPDEST DUP2 SLOAD DUP2 MSTORE SWAP1 PUSH1 0x1 ADD SWAP1 PUSH1 0x20 ADD DUP1 DUP4 GT PUSH2 0x21F JUMPI DUP3 SWAP1 SUB PUSH1 0x1F AND DUP3 ADD SWAP2 JUMPDEST POP POP POP POP POP SWAP1 DUP1 PUSH1 0x1 ADD PUSH1 0x0 SWAP1 SLOAD SWAP1 PUSH2 0x100 EXP SWAP1 DIV PUSH1 0xFF AND SWAP1 POP DUP3 JUMP JUMPDEST POP POP POP JUMP JUMPDEST DUP3 DUP1 SLOAD PUSH2 0x26A SWAP1 PUSH2 0x523 JUMP JUMPDEST SWAP1 PUSH1 0x0 MSTORE PUSH1 0x20 PUSH1 0x0 KECCAK256 SWAP1 PUSH1 0x1F ADD PUSH1 0x20 SWAP1 DIV DUP2 ADD SWAP3 DUP3 PUSH2 0x28C JUMPI PUSH1 0x0 DUP6 SSTORE PUSH2 0x2D3 JUMP JUMPDEST DUP3 PUSH1 0x1F LT PUSH2 0x2A5 JUMPI DUP1 MLOAD PUSH1 0xFF NOT AND DUP4 DUP1 ADD OR DUP6 SSTORE PUSH2 0x2D3 JUMP JUMPDEST DUP3 DUP1 ADD PUSH1 0x1 ADD DUP6 SSTORE DUP3 ISZERO PUSH2 0x2D3 JUMPI SWAP2 DUP3 ADD JUMPDEST DUP3 DUP2 GT ISZERO PUSH2 0x2D2 JUMPI DUP3 MLOAD DUP3 SSTORE SWAP2 PUSH1 0x20 ADD SWAP2 SWAP1 PUSH1 0x1 ADD SWAP1 PUSH2 0x2B7 JUMP JUMPDEST JUMPDEST POP SWAP1 POP PUSH2 0x2E0 SWAP2 SWAP1 PUSH2 0x2E4 JUMP JUMPDEST POP SWAP1 JUMP JUMPDEST JUMPDEST DUP1 DUP3 GT ISZERO PUSH2 0x2FD JUMPI PUSH1 0x0 DUP2 PUSH1 0x0 SWAP1 SSTORE POP PUSH1 0x1 ADD PUSH2 0x2E5 JUMP JUMPDEST POP SWAP1 JUMP JUMPDEST PUSH1 0x0 DUP1 DUP4 PUSH1 0x1F DUP5 ADD SLT PUSH2 0x317 JUMPI PUSH2 0x316 PUSH2 0x589 JUMP JUMPDEST JUMPDEST DUP3 CALLDATALOAD SWAP1 POP PUSH8 0xFFFFFFFFFFFFFFFF DUP2 GT ISZERO PUSH2 0x334 JUMPI PUSH2 0x333 PUSH2 0x584 JUMP JUMPDEST JUMPDEST PUSH1 0x20 DUP4 ADD SWAP2 POP DUP4 PUSH1 0x1 DUP3 MUL DUP4 ADD GT ISZERO PUSH2 0x350 JUMPI PUSH2 0x34F PUSH2 0x58E JUMP JUMPDEST JUMPDEST SWAP3 POP SWAP3 SWAP1 POP JUMP JUMPDEST PUSH1 0x0 DUP2 CALLDATALOAD SWAP1 POP PUSH2 0x366 DUP2 PUSH2 0x5AE JUMP JUMPDEST SWAP3 SWAP2 POP POP JUMP JUMPDEST PUSH1 0x0 DUP1 PUSH1 0x20 DUP4 DUP6 SUB SLT ISZERO PUSH2 0x383 JUMPI PUSH2 0x382 PUSH2 0x598 JUMP JUMPDEST JUMPDEST PUSH1 0x0 DUP4 ADD CALLDATALOAD PUSH8 0xFFFFFFFFFFFFFFFF DUP2 GT ISZERO PUSH2 0x3A1 JUMPI PUSH2 0x3A0 PUSH2 0x593 JUMP JUMPDEST JUMPDEST PUSH2 0x3AD DUP6 DUP3 DUP7 ADD PUSH2 0x301 JUMP JUMPDEST SWAP3 POP SWAP3 POP POP SWAP3 POP SWAP3 SWAP1 POP JUMP JUMPDEST PUSH1 0x0 PUSH1 0x20 DUP3 DUP5 SUB SLT ISZERO PUSH2 0x3CF JUMPI PUSH2 0x3CE PUSH2 0x598 JUMP JUMPDEST JUMPDEST PUSH1 0x0 PUSH2 0x3DD DUP5 DUP3 DUP6 ADD PUSH2 0x357 JUMP JUMPDEST SWAP2 POP POP SWAP3 SWAP2 POP POP JUMP JUMPDEST PUSH1 0x0 DUP1 PUSH1 0x0 PUSH1 0x40 DUP5 DUP7 SUB SLT ISZERO PUSH2 0x3FF JUMPI PUSH2 0x3FE PUSH2 0x598 JUMP JUMPDEST JUMPDEST PUSH1 0x0 PUSH2 0x40D DUP7 DUP3 DUP8 ADD PUSH2 0x357 JUMP JUMPDEST SWAP4 POP POP PUSH1 0x20 DUP5 ADD CALLDATALOAD PUSH8 0xFFFFFFFFFFFFFFFF DUP2 GT ISZERO PUSH2 0x42E JUMPI PUSH2 0x42D PUSH2 0x593 JUMP JUMPDEST JUMPDEST PUSH2 0x43A DUP7 DUP3 DUP8 ADD PUSH2 0x301 JUMP JUMPDEST SWAP3 POP SWAP3 POP POP SWAP3 POP SWAP3 POP SWAP3 JUMP JUMPDEST PUSH2 0x44F DUP2 PUSH2 0x4DA JUMP JUMPDEST DUP3 MSTORE POP POP JUMP JUMPDEST PUSH1 0x0 PUSH2 0x460 DUP3 PUSH2 0x4BE JUMP JUMPDEST PUSH2 0x46A DUP2 DUP6 PUSH2 0x4C9 JUMP JUMPDEST SWAP4 POP PUSH2 0x47A DUP2 DUP6 PUSH1 0x20 DUP7 ADD PUSH2 0x4F0 JUMP JUMPDEST PUSH2 0x483 DUP2 PUSH2 0x59D JUMP JUMPDEST DUP5 ADD SWAP2 POP POP SWAP3 SWAP2 POP POP JUMP JUMPDEST PUSH1 0x0 PUSH1 0x40 DUP3 ADD SWAP1 POP DUP2 DUP2 SUB PUSH1 0x0 DUP4 ADD MSTORE PUSH2 0x4A8 DUP2 DUP6 PUSH2 0x455 JUMP JUMPDEST SWAP1 POP PUSH2 0x4B7 PUSH1 0x20 DUP4 ADD DUP5 PUSH2 0x446 JUMP JUMPDEST SWAP4 SWAP3 POP POP POP JUMP JUMPDEST PUSH1 0x0 DUP2 MLOAD SWAP1 POP SWAP2 SWAP1 POP JUMP JUMPDEST PUSH1 0x0 DUP3 DUP3 MSTORE PUSH1 0x20 DUP3 ADD SWAP1 POP SWAP3 SWAP2 POP POP JUMP JUMPDEST PUSH1 0x0 DUP2 ISZERO ISZERO SWAP1 POP SWAP2 SWAP1 POP JUMP JUMPDEST PUSH1 0x0 DUP2 SWAP1 POP SWAP2 SWAP1 POP JUMP JUMPDEST PUSH1 0x0 JUMPDEST DUP4 DUP2 LT ISZERO PUSH2 0x50E JUMPI DUP1 DUP3 ADD MLOAD DUP2 DUP5 ADD MSTORE PUSH1 0x20 DUP2 ADD SWAP1 POP PUSH2 0x4F3 JUMP JUMPDEST DUP4 DUP2 GT ISZERO PUSH2 0x51D JUMPI PUSH1 0x0 DUP5 DUP5 ADD MSTORE JUMPDEST POP POP POP POP JUMP JUMPDEST PUSH1 0x0 PUSH1 0x2 DUP3 DIV SWAP1 POP PUSH1 0x1 DUP3 AND DUP1 PUSH2 0x53B JUMPI PUSH1 0x7F DUP3 AND SWAP2 POP JUMPDEST PUSH1 0x20 DUP3 LT DUP2 EQ ISZERO PUSH2 0x54F JUMPI PUSH2 0x54E PUSH2 0x555 JUMP JUMPDEST JUMPDEST POP SWAP2 SWAP1 POP JUMP JUMPDEST PUSH32 0x4E487B7100000000000000000000000000000000000000000000000000000000 PUSH1 0x0 MSTORE PUSH1 0x22 PUSH1 0x4 MSTORE PUSH1 0x24 PUSH1 0x0 REVERT JUMPDEST PUSH1 0x0 DUP1 REVERT JUMPDEST PUSH1 0x0 DUP1 REVERT JUMPDEST PUSH1 0x0 DUP1 REVERT JUMPDEST PUSH1 0x0 DUP1 REVERT JUMPDEST PUSH1 0x0 DUP1 REVERT JUMPDEST PUSH1 0x0 PUSH1 0x1F NOT PUSH1 0x1F DUP4 ADD AND SWAP1 POP SWAP2 SWAP1 POP JUMP JUMPDEST PUSH2 0x5B7 DUP2 PUSH2 0x4E6 JUMP JUMPDEST DUP2 EQ PUSH2 0x5C2 JUMPI PUSH1 0x0 DUP1 REVERT JUMPDEST POP JUMP INVALID LOG2 PUSH5 0x6970667358 0x22 SLT KECCAK256 SWAP3 PUSH25 0x777E6C5757E379B37D6BD903A384A71C7DD5D6A8CB55D0A12 0xE1 0xED PUSH29 0x532E64736F6C6343000807003300000000000000000000000000000000 "
				},
				"gasEstimates": {
					"creation": {
						"codeDepositCost": "306200",
						"executionCost": "343",
						"totalCost": "306543"
					},
					"external": {
						"create(string)": "infinite",
						"get()": "122",
						"todos(uint256)": "infinite",
						"updateText(uint256,string)": "688"
					}
				},
				"methodIdentifiers": {
					"create(string)": "b6a46b3b",
					"get()": "6d4ce63c",
					"todos(uint256)": "bc8bc2b4",
					"updateText(uint256,string)": "cd111614"
				}
			},
			"storageLayout": {
				"storage": [
					{
						"astId": 10,
						"contract": "hands-on-task-intermediate-1/TodoList.sol:TodoList",
						"label": "todos",
						"offset": 0,
						"slot": "0",
						"type": "t_array(t_struct(Todo)6_storage)dyn_storage"
					}
				],
				"types": {
					"t_array(t_struct(Todo)6_storage)dyn_storage": {
						"base": "t_struct(Todo)6_storage",
						"encoding": "dynamic_array",
						"label": "struct TodoList.Todo[]",
						"numberOfBytes": "32"
					},
					"t_bool": {
						"encoding": "inplace",
						"label": "bool",
						"numberOfBytes": "1"
					},
					"t_string_storage": {
						"encoding": "bytes",
						"label": "string",
						"numberOfBytes": "32"
					},
					"t_struct(Todo)6_storage": {
						"encoding": "inplace",
						"label": "struct TodoList.Todo",
						"members": [
							{
								"astId": 3,
								"contract": "hands-on-task-intermediate-1/TodoList.sol:TodoList",
								"label": "text",
								"offset": 0,
								"slot": "0",
								"type": "t_string_storage"
							},
							{
								"astId": 5,
								"contract": "hands-on-task-intermediate-1/TodoList.sol:TodoList",
								"label": "completed",
								"offset": 0,
								"slot": "1",
								"type": "t_bool"
							}
						],
						"numberOfBytes": "64"
					}
				}
			},
			"userdoc": {
				"kind": "user",
				"methods": {},
				"version": 1
			}
		}
	}
}