{
	"hands-on-task-intermediate-1/TodoList.sol": {
		"TodoList": {
			"abi": [
				{
					"inputs": [
						{
							"internalType": "string",
							"name": "_text",
							"type": "string"
						}
					],
					"name": "create",
					"outputs": [],
					"stateMutability": "nonpayable",
					"type": "function"
				},
				{
					"inputs": [],
					"name": "get",
					"outputs": [],
					"stateMutability": "nonpayable",
					"type": "function"
				},
				{
					"inputs": [
						{
							"internalType": "uint256",
							"name": "",
							"type": "uint256"
						}
					],
					"name": "todos",
					"outputs": [
						{
							"internalType": "string",
							"name": "text",
							"type": "string"
						},
						{
							"internalType": "bool",
							"name": "completed",
							"type": "bool"
						}
					],
					"stateMutability": "view",
					"type": "function"
				},
				{
					"inputs": [],
					"name": "updateText",
					"outputs": [],
					"stateMutability": "nonpayable",
					"type": "function"
				}
			],
			"devdoc": {
				"kind": "dev",
				"methods": {},
				"version": 1
			},
			"evm": {
				"assembly": "    /* \"hands-on-task-intermediate-1/TodoList.sol\":60:336  contract TodoList {\r... */\n  mstore(0x40, 0x80)\n  callvalue\n  dup1\n  iszero\n  tag_1\n  jumpi\n  0x00\n  dup1\n  revert\ntag_1:\n  pop\n  dataSize(sub_0)\n  dup1\n  dataOffset(sub_0)\n  0x00\n  codecopy\n  0x00\n  return\nstop\n\nsub_0: assembly {\n        /* \"hands-on-task-intermediate-1/TodoList.sol\":60:336  contract TodoList {\r... */\n      mstore(0x40, 0x80)\n      callvalue\n      dup1\n      iszero\n      tag_1\n      jumpi\n      0x00\n      dup1\n      revert\n    tag_1:\n      pop\n      jumpi(tag_2, lt(calldatasize, 0x04))\n      shr(0xe0, calldataload(0x00))\n      dup1\n      0x6d4ce63c\n      eq\n      tag_3\n      jumpi\n      dup1\n      0xb6a46b3b\n      eq\n      tag_4\n      jumpi\n      dup1\n      0xbc8bc2b4\n      eq\n      tag_5\n      jumpi\n      dup1\n      0xfee10aee\n      eq\n      tag_6\n      jumpi\n    tag_2:\n      0x00\n      dup1\n      revert\n        /* \"hands-on-task-intermediate-1/TodoList.sol\":305:331  function get() external {} */\n    tag_3:\n      tag_7\n      tag_8\n      jump\t// in\n    tag_7:\n      stop\n        /* \"hands-on-task-intermediate-1/TodoList.sol\":190:256  function create(string calldata _text) external {\r... */\n    tag_4:\n      tag_9\n      0x04\n      dup1\n      calldatasize\n      sub\n      dup2\n      add\n      swap1\n      tag_10\n      swap2\n      swap1\n      tag_11\n      jump\t// in\n    tag_10:\n      tag_12\n      jump\t// in\n    tag_9:\n      stop\n        /* \"hands-on-task-intermediate-1/TodoList.sol\":162:181  Todo[] public todos */\n    tag_5:\n      tag_13\n      0x04\n      dup1\n      calldatasize\n      sub\n      dup2\n      add\n      swap1\n      tag_14\n      swap2\n      swap1\n      tag_15\n      jump\t// in\n    tag_14:\n      tag_16\n      jump\t// in\n    tag_13:\n      mload(0x40)\n      tag_17\n      swap3\n      swap2\n      swap1\n      tag_18\n      jump\t// in\n    tag_17:\n      mload(0x40)\n      dup1\n      swap2\n      sub\n      swap1\n      return\n        /* \"hands-on-task-intermediate-1/TodoList.sol\":264:297  function updateText() external {} */\n    tag_6:\n      tag_19\n      tag_20\n      jump\t// in\n    tag_19:\n      stop\n        /* \"hands-on-task-intermediate-1/TodoList.sol\":305:331  function get() external {} */\n    tag_8:\n      jump\t// out\n        /* \"hands-on-task-intermediate-1/TodoList.sol\":190:256  function create(string calldata _text) external {\r... */\n    tag_12:\n      pop\n      pop\n      jump\t// out\n        /* \"hands-on-task-intermediate-1/TodoList.sol\":162:181  Todo[] public todos */\n    tag_16:\n      0x00\n      dup2\n      dup2\n      sload\n      dup2\n      lt\n      tag_23\n      jumpi\n      0x00\n      dup1\n      revert\n    tag_23:\n      swap1\n      0x00\n      mstore\n      keccak256(0x00, 0x20)\n      swap1\n      0x02\n      mul\n      add\n      0x00\n      swap2\n      pop\n      swap1\n      pop\n      dup1\n      0x00\n      add\n      dup1\n      sload\n      tag_25\n      swap1\n      tag_26\n      jump\t// in\n    tag_25:\n      dup1\n      0x1f\n      add\n      0x20\n      dup1\n      swap2\n      div\n      mul\n      0x20\n      add\n      mload(0x40)\n      swap1\n      dup2\n      add\n      0x40\n      mstore\n      dup1\n      swap3\n      swap2\n      swap1\n      dup2\n      dup2\n      mstore\n      0x20\n      add\n      dup3\n      dup1\n      sload\n      tag_27\n      swap1\n      tag_26\n      jump\t// in\n    tag_27:\n      dup1\n      iszero\n      tag_28\n      jumpi\n      dup1\n      0x1f\n      lt\n      tag_29\n      jumpi\n      0x0100\n      dup1\n      dup4\n      sload\n      div\n      mul\n      dup4\n      mstore\n      swap2\n      0x20\n      add\n      swap2\n      jump(tag_28)\n    tag_29:\n      dup3\n      add\n      swap2\n      swap1\n      0x00\n      mstore\n      keccak256(0x00, 0x20)\n      swap1\n    tag_30:\n      dup2\n      sload\n      dup2\n      mstore\n      swap1\n      0x01\n      add\n      swap1\n      0x20\n      add\n      dup1\n      dup4\n      gt\n      tag_30\n      jumpi\n      dup3\n      swap1\n      sub\n      0x1f\n      and\n      dup3\n      add\n      swap2\n    tag_28:\n      pop\n      pop\n      pop\n      pop\n      pop\n      swap1\n      dup1\n      0x01\n      add\n      0x00\n      swap1\n      sload\n      swap1\n      0x0100\n      exp\n      swap1\n      div\n      0xff\n      and\n      swap1\n      pop\n      dup3\n      jump\t// out\n        /* \"hands-on-task-intermediate-1/TodoList.sol\":264:297  function updateText() external {} */\n    tag_20:\n      jump\t// out\n        /* \"#utility.yul\":21:574   */\n    tag_33:\n        /* \"#utility.yul\":79:87   */\n      0x00\n        /* \"#utility.yul\":89:95   */\n      dup1\n        /* \"#utility.yul\":139:142   */\n      dup4\n        /* \"#utility.yul\":132:136   */\n      0x1f\n        /* \"#utility.yul\":124:130   */\n      dup5\n        /* \"#utility.yul\":120:137   */\n      add\n        /* \"#utility.yul\":116:143   */\n      slt\n        /* \"#utility.yul\":106:228   */\n      tag_35\n      jumpi\n        /* \"#utility.yul\":147:226   */\n      tag_36\n      tag_37\n      jump\t// in\n    tag_36:\n        /* \"#utility.yul\":106:228   */\n    tag_35:\n        /* \"#utility.yul\":260:266   */\n      dup3\n        /* \"#utility.yul\":247:267   */\n      calldataload\n        /* \"#utility.yul\":237:267   */\n      swap1\n      pop\n        /* \"#utility.yul\":290:308   */\n      0xffffffffffffffff\n        /* \"#utility.yul\":282:288   */\n      dup2\n        /* \"#utility.yul\":279:309   */\n      gt\n        /* \"#utility.yul\":276:393   */\n      iszero\n      tag_38\n      jumpi\n        /* \"#utility.yul\":312:391   */\n      tag_39\n      tag_40\n      jump\t// in\n    tag_39:\n        /* \"#utility.yul\":276:393   */\n    tag_38:\n        /* \"#utility.yul\":426:430   */\n      0x20\n        /* \"#utility.yul\":418:424   */\n      dup4\n        /* \"#utility.yul\":414:431   */\n      add\n        /* \"#utility.yul\":402:431   */\n      swap2\n      pop\n        /* \"#utility.yul\":480:483   */\n      dup4\n        /* \"#utility.yul\":472:476   */\n      0x01\n        /* \"#utility.yul\":464:470   */\n      dup3\n        /* \"#utility.yul\":460:477   */\n      mul\n        /* \"#utility.yul\":450:458   */\n      dup4\n        /* \"#utility.yul\":446:478   */\n      add\n        /* \"#utility.yul\":443:484   */\n      gt\n        /* \"#utility.yul\":440:568   */\n      iszero\n      tag_41\n      jumpi\n        /* \"#utility.yul\":487:566   */\n      tag_42\n      tag_43\n      jump\t// in\n    tag_42:\n        /* \"#utility.yul\":440:568   */\n    tag_41:\n        /* \"#utility.yul\":21:574   */\n      swap3\n      pop\n      swap3\n      swap1\n      pop\n      jump\t// out\n        /* \"#utility.yul\":580:719   */\n    tag_44:\n        /* \"#utility.yul\":626:631   */\n      0x00\n        /* \"#utility.yul\":664:670   */\n      dup2\n        /* \"#utility.yul\":651:671   */\n      calldataload\n        /* \"#utility.yul\":642:671   */\n      swap1\n      pop\n        /* \"#utility.yul\":680:713   */\n      tag_46\n        /* \"#utility.yul\":707:712   */\n      dup2\n        /* \"#utility.yul\":680:713   */\n      tag_47\n      jump\t// in\n    tag_46:\n        /* \"#utility.yul\":580:719   */\n      swap3\n      swap2\n      pop\n      pop\n      jump\t// out\n        /* \"#utility.yul\":725:1254   */\n    tag_11:\n        /* \"#utility.yul\":796:802   */\n      0x00\n        /* \"#utility.yul\":804:810   */\n      dup1\n        /* \"#utility.yul\":853:855   */\n      0x20\n        /* \"#utility.yul\":841:850   */\n      dup4\n        /* \"#utility.yul\":832:839   */\n      dup6\n        /* \"#utility.yul\":828:851   */\n      sub\n        /* \"#utility.yul\":824:856   */\n      slt\n        /* \"#utility.yul\":821:940   */\n      iszero\n      tag_49\n      jumpi\n        /* \"#utility.yul\":859:938   */\n      tag_50\n      tag_51\n      jump\t// in\n    tag_50:\n        /* \"#utility.yul\":821:940   */\n    tag_49:\n        /* \"#utility.yul\":1007:1008   */\n      0x00\n        /* \"#utility.yul\":996:1005   */\n      dup4\n        /* \"#utility.yul\":992:1009   */\n      add\n        /* \"#utility.yul\":979:1010   */\n      calldataload\n        /* \"#utility.yul\":1037:1055   */\n      0xffffffffffffffff\n        /* \"#utility.yul\":1029:1035   */\n      dup2\n        /* \"#utility.yul\":1026:1056   */\n      gt\n        /* \"#utility.yul\":1023:1140   */\n      iszero\n      tag_52\n      jumpi\n        /* \"#utility.yul\":1059:1138   */\n      tag_53\n      tag_54\n      jump\t// in\n    tag_53:\n        /* \"#utility.yul\":1023:1140   */\n    tag_52:\n        /* \"#utility.yul\":1172:1237   */\n      tag_55\n        /* \"#utility.yul\":1229:1236   */\n      dup6\n        /* \"#utility.yul\":1220:1226   */\n      dup3\n        /* \"#utility.yul\":1209:1218   */\n      dup7\n        /* \"#utility.yul\":1205:1227   */\n      add\n        /* \"#utility.yul\":1172:1237   */\n      tag_33\n      jump\t// in\n    tag_55:\n        /* \"#utility.yul\":1154:1237   */\n      swap3\n      pop\n      swap3\n      pop\n        /* \"#utility.yul\":950:1247   */\n      pop\n        /* \"#utility.yul\":725:1254   */\n      swap3\n      pop\n      swap3\n      swap1\n      pop\n      jump\t// out\n        /* \"#utility.yul\":1260:1589   */\n    tag_15:\n        /* \"#utility.yul\":1319:1325   */\n      0x00\n        /* \"#utility.yul\":1368:1370   */\n      0x20\n        /* \"#utility.yul\":1356:1365   */\n      dup3\n        /* \"#utility.yul\":1347:1354   */\n      dup5\n        /* \"#utility.yul\":1343:1366   */\n      sub\n        /* \"#utility.yul\":1339:1371   */\n      slt\n        /* \"#utility.yul\":1336:1455   */\n      iszero\n      tag_57\n      jumpi\n        /* \"#utility.yul\":1374:1453   */\n      tag_58\n      tag_51\n      jump\t// in\n    tag_58:\n        /* \"#utility.yul\":1336:1455   */\n    tag_57:\n        /* \"#utility.yul\":1494:1495   */\n      0x00\n        /* \"#utility.yul\":1519:1572   */\n      tag_59\n        /* \"#utility.yul\":1564:1571   */\n      dup5\n        /* \"#utility.yul\":1555:1561   */\n      dup3\n        /* \"#utility.yul\":1544:1553   */\n      dup6\n        /* \"#utility.yul\":1540:1562   */\n      add\n        /* \"#utility.yul\":1519:1572   */\n      tag_44\n      jump\t// in\n    tag_59:\n        /* \"#utility.yul\":1509:1572   */\n      swap2\n      pop\n        /* \"#utility.yul\":1465:1582   */\n      pop\n        /* \"#utility.yul\":1260:1589   */\n      swap3\n      swap2\n      pop\n      pop\n      jump\t// out\n        /* \"#utility.yul\":1595:1704   */\n    tag_60:\n        /* \"#utility.yul\":1676:1697   */\n      tag_62\n        /* \"#utility.yul\":1691:1696   */\n      dup2\n        /* \"#utility.yul\":1676:1697   */\n      tag_63\n      jump\t// in\n    tag_62:\n        /* \"#utility.yul\":1671:1674   */\n      dup3\n        /* \"#utility.yul\":1664:1698   */\n      mstore\n        /* \"#utility.yul\":1595:1704   */\n      pop\n      pop\n      jump\t// out\n        /* \"#utility.yul\":1710:2074   */\n    tag_64:\n        /* \"#utility.yul\":1798:1801   */\n      0x00\n        /* \"#utility.yul\":1826:1865   */\n      tag_66\n        /* \"#utility.yul\":1859:1864   */\n      dup3\n        /* \"#utility.yul\":1826:1865   */\n      tag_67\n      jump\t// in\n    tag_66:\n        /* \"#utility.yul\":1881:1952   */\n      tag_68\n        /* \"#utility.yul\":1945:1951   */\n      dup2\n        /* \"#utility.yul\":1940:1943   */\n      dup6\n        /* \"#utility.yul\":1881:1952   */\n      tag_69\n      jump\t// in\n    tag_68:\n        /* \"#utility.yul\":1874:1952   */\n      swap4\n      pop\n        /* \"#utility.yul\":1961:2013   */\n      tag_70\n        /* \"#utility.yul\":2006:2012   */\n      dup2\n        /* \"#utility.yul\":2001:2004   */\n      dup6\n        /* \"#utility.yul\":1994:1998   */\n      0x20\n        /* \"#utility.yul\":1987:1992   */\n      dup7\n        /* \"#utility.yul\":1983:1999   */\n      add\n        /* \"#utility.yul\":1961:2013   */\n      tag_71\n      jump\t// in\n    tag_70:\n        /* \"#utility.yul\":2038:2067   */\n      tag_72\n        /* \"#utility.yul\":2060:2066   */\n      dup2\n        /* \"#utility.yul\":2038:2067   */\n      tag_73\n      jump\t// in\n    tag_72:\n        /* \"#utility.yul\":2033:2036   */\n      dup5\n        /* \"#utility.yul\":2029:2068   */\n      add\n        /* \"#utility.yul\":2022:2068   */\n      swap2\n      pop\n        /* \"#utility.yul\":1802:2074   */\n      pop\n        /* \"#utility.yul\":1710:2074   */\n      swap3\n      swap2\n      pop\n      pop\n      jump\t// out\n        /* \"#utility.yul\":2080:2491   */\n    tag_18:\n        /* \"#utility.yul\":2215:2219   */\n      0x00\n        /* \"#utility.yul\":2253:2255   */\n      0x40\n        /* \"#utility.yul\":2242:2251   */\n      dup3\n        /* \"#utility.yul\":2238:2256   */\n      add\n        /* \"#utility.yul\":2230:2256   */\n      swap1\n      pop\n        /* \"#utility.yul\":2302:2311   */\n      dup2\n        /* \"#utility.yul\":2296:2300   */\n      dup2\n        /* \"#utility.yul\":2292:2312   */\n      sub\n        /* \"#utility.yul\":2288:2289   */\n      0x00\n        /* \"#utility.yul\":2277:2286   */\n      dup4\n        /* \"#utility.yul\":2273:2290   */\n      add\n        /* \"#utility.yul\":2266:2313   */\n      mstore\n        /* \"#utility.yul\":2330:2408   */\n      tag_75\n        /* \"#utility.yul\":2403:2407   */\n      dup2\n        /* \"#utility.yul\":2394:2400   */\n      dup6\n        /* \"#utility.yul\":2330:2408   */\n      tag_64\n      jump\t// in\n    tag_75:\n        /* \"#utility.yul\":2322:2408   */\n      swap1\n      pop\n        /* \"#utility.yul\":2418:2484   */\n      tag_76\n        /* \"#utility.yul\":2480:2482   */\n      0x20\n        /* \"#utility.yul\":2469:2478   */\n      dup4\n        /* \"#utility.yul\":2465:2483   */\n      add\n        /* \"#utility.yul\":2456:2462   */\n      dup5\n        /* \"#utility.yul\":2418:2484   */\n      tag_60\n      jump\t// in\n    tag_76:\n        /* \"#utility.yul\":2080:2491   */\n      swap4\n      swap3\n      pop\n      pop\n      pop\n      jump\t// out\n        /* \"#utility.yul\":2578:2677   */\n    tag_67:\n        /* \"#utility.yul\":2630:2636   */\n      0x00\n        /* \"#utility.yul\":2664:2669   */\n      dup2\n        /* \"#utility.yul\":2658:2670   */\n      mload\n        /* \"#utility.yul\":2648:2670   */\n      swap1\n      pop\n        /* \"#utility.yul\":2578:2677   */\n      swap2\n      swap1\n      pop\n      jump\t// out\n        /* \"#utility.yul\":2683:2852   */\n    tag_69:\n        /* \"#utility.yul\":2767:2778   */\n      0x00\n        /* \"#utility.yul\":2801:2807   */\n      dup3\n        /* \"#utility.yul\":2796:2799   */\n      dup3\n        /* \"#utility.yul\":2789:2808   */\n      mstore\n        /* \"#utility.yul\":2841:2845   */\n      0x20\n        /* \"#utility.yul\":2836:2839   */\n      dup3\n        /* \"#utility.yul\":2832:2846   */\n      add\n        /* \"#utility.yul\":2817:2846   */\n      swap1\n      pop\n        /* \"#utility.yul\":2683:2852   */\n      swap3\n      swap2\n      pop\n      pop\n      jump\t// out\n        /* \"#utility.yul\":2858:2948   */\n    tag_63:\n        /* \"#utility.yul\":2892:2899   */\n      0x00\n        /* \"#utility.yul\":2935:2940   */\n      dup2\n        /* \"#utility.yul\":2928:2941   */\n      iszero\n        /* \"#utility.yul\":2921:2942   */\n      iszero\n        /* \"#utility.yul\":2910:2942   */\n      swap1\n      pop\n        /* \"#utility.yul\":2858:2948   */\n      swap2\n      swap1\n      pop\n      jump\t// out\n        /* \"#utility.yul\":2954:3031   */\n    tag_82:\n        /* \"#utility.yul\":2991:2998   */\n      0x00\n        /* \"#utility.yul\":3020:3025   */\n      dup2\n        /* \"#utility.yul\":3009:3025   */\n      swap1\n      pop\n        /* \"#utility.yul\":2954:3031   */\n      swap2\n      swap1\n      pop\n      jump\t// out\n        /* \"#utility.yul\":3037:3344   */\n    tag_71:\n        /* \"#utility.yul\":3105:3106   */\n      0x00\n        /* \"#utility.yul\":3115:3228   */\n    tag_85:\n        /* \"#utility.yul\":3129:3135   */\n      dup4\n        /* \"#utility.yul\":3126:3127   */\n      dup2\n        /* \"#utility.yul\":3123:3136   */\n      lt\n        /* \"#utility.yul\":3115:3228   */\n      iszero\n      tag_87\n      jumpi\n        /* \"#utility.yul\":3214:3215   */\n      dup1\n        /* \"#utility.yul\":3209:3212   */\n      dup3\n        /* \"#utility.yul\":3205:3216   */\n      add\n        /* \"#utility.yul\":3199:3217   */\n      mload\n        /* \"#utility.yul\":3195:3196   */\n      dup2\n        /* \"#utility.yul\":3190:3193   */\n      dup5\n        /* \"#utility.yul\":3186:3197   */\n      add\n        /* \"#utility.yul\":3179:3218   */\n      mstore\n        /* \"#utility.yul\":3151:3153   */\n      0x20\n        /* \"#utility.yul\":3148:3149   */\n      dup2\n        /* \"#utility.yul\":3144:3154   */\n      add\n        /* \"#utility.yul\":3139:3154   */\n      swap1\n      pop\n        /* \"#utility.yul\":3115:3228   */\n      jump(tag_85)\n    tag_87:\n        /* \"#utility.yul\":3246:3252   */\n      dup4\n        /* \"#utility.yul\":3243:3244   */\n      dup2\n        /* \"#utility.yul\":3240:3253   */\n      gt\n        /* \"#utility.yul\":3237:3338   */\n      iszero\n      tag_88\n      jumpi\n        /* \"#utility.yul\":3326:3327   */\n      0x00\n        /* \"#utility.yul\":3317:3323   */\n      dup5\n        /* \"#utility.yul\":3312:3315   */\n      dup5\n        /* \"#utility.yul\":3308:3324   */\n      add\n        /* \"#utility.yul\":3301:3328   */\n      mstore\n        /* \"#utility.yul\":3237:3338   */\n    tag_88:\n        /* \"#utility.yul\":3086:3344   */\n      pop\n        /* \"#utility.yul\":3037:3344   */\n      pop\n      pop\n      pop\n      jump\t// out\n        /* \"#utility.yul\":3350:3670   */\n    tag_26:\n        /* \"#utility.yul\":3394:3400   */\n      0x00\n        /* \"#utility.yul\":3431:3432   */\n      0x02\n        /* \"#utility.yul\":3425:3429   */\n      dup3\n        /* \"#utility.yul\":3421:3433   */\n      div\n        /* \"#utility.yul\":3411:3433   */\n      swap1\n      pop\n        /* \"#utility.yul\":3478:3479   */\n      0x01\n        /* \"#utility.yul\":3472:3476   */\n      dup3\n        /* \"#utility.yul\":3468:3480   */\n      and\n        /* \"#utility.yul\":3499:3517   */\n      dup1\n        /* \"#utility.yul\":3489:3570   */\n      tag_90\n      jumpi\n        /* \"#utility.yul\":3555:3559   */\n      0x7f\n        /* \"#utility.yul\":3547:3553   */\n      dup3\n        /* \"#utility.yul\":3543:3560   */\n      and\n        /* \"#utility.yul\":3533:3560   */\n      swap2\n      pop\n        /* \"#utility.yul\":3489:3570   */\n    tag_90:\n        /* \"#utility.yul\":3617:3619   */\n      0x20\n        /* \"#utility.yul\":3609:3615   */\n      dup3\n        /* \"#utility.yul\":3606:3620   */\n      lt\n        /* \"#utility.yul\":3586:3604   */\n      dup2\n        /* \"#utility.yul\":3583:3621   */\n      eq\n        /* \"#utility.yul\":3580:3664   */\n      iszero\n      tag_91\n      jumpi\n        /* \"#utility.yul\":3636:3654   */\n      tag_92\n      tag_93\n      jump\t// in\n    tag_92:\n        /* \"#utility.yul\":3580:3664   */\n    tag_91:\n        /* \"#utility.yul\":3401:3670   */\n      pop\n        /* \"#utility.yul\":3350:3670   */\n      swap2\n      swap1\n      pop\n      jump\t// out\n        /* \"#utility.yul\":3676:3856   */\n    tag_93:\n        /* \"#utility.yul\":3724:3801   */\n      0x4e487b7100000000000000000000000000000000000000000000000000000000\n        /* \"#utility.yul\":3721:3722   */\n      0x00\n        /* \"#utility.yul\":3714:3802   */\n      mstore\n        /* \"#utility.yul\":3821:3825   */\n      0x22\n        /* \"#utility.yul\":3818:3819   */\n      0x04\n        /* \"#utility.yul\":3811:3826   */\n      mstore\n        /* \"#utility.yul\":3845:3849   */\n      0x24\n        /* \"#utility.yul\":3842:3843   */\n      0x00\n        /* \"#utility.yul\":3835:3850   */\n      revert\n        /* \"#utility.yul\":3862:3979   */\n    tag_40:\n        /* \"#utility.yul\":3971:3972   */\n      0x00\n        /* \"#utility.yul\":3968:3969   */\n      dup1\n        /* \"#utility.yul\":3961:3973   */\n      revert\n        /* \"#utility.yul\":3985:4102   */\n    tag_37:\n        /* \"#utility.yul\":4094:4095   */\n      0x00\n        /* \"#utility.yul\":4091:4092   */\n      dup1\n        /* \"#utility.yul\":4084:4096   */\n      revert\n        /* \"#utility.yul\":4108:4225   */\n    tag_43:\n        /* \"#utility.yul\":4217:4218   */\n      0x00\n        /* \"#utility.yul\":4214:4215   */\n      dup1\n        /* \"#utility.yul\":4207:4219   */\n      revert\n        /* \"#utility.yul\":4231:4348   */\n    tag_54:\n        /* \"#utility.yul\":4340:4341   */\n      0x00\n        /* \"#utility.yul\":4337:4338   */\n      dup1\n        /* \"#utility.yul\":4330:4342   */\n      revert\n        /* \"#utility.yul\":4354:4471   */\n    tag_51:\n        /* \"#utility.yul\":4463:4464   */\n      0x00\n        /* \"#utility.yul\":4460:4461   */\n      dup1\n        /* \"#utility.yul\":4453:4465   */\n      revert\n        /* \"#utility.yul\":4477:4579   */\n    tag_73:\n        /* \"#utility.yul\":4518:4524   */\n      0x00\n        /* \"#utility.yul\":4569:4571   */\n      0x1f\n        /* \"#utility.yul\":4565:4572   */\n      not\n        /* \"#utility.yul\":4560:4562   */\n      0x1f\n        /* \"#utility.yul\":4553:4558   */\n      dup4\n        /* \"#utility.yul\":4549:4563   */\n      add\n        /* \"#utility.yul\":4545:4573   */\n      and\n        /* \"#utility.yul\":4535:4573   */\n      swap1\n      pop\n        /* \"#utility.yul\":4477:4579   */\n      swap2\n      swap1\n      pop\n      jump\t// out\n        /* \"#utility.yul\":4585:4707   */\n    tag_47:\n        /* \"#utility.yul\":4658:4682   */\n      tag_102\n        /* \"#utility.yul\":4676:4681   */\n      dup2\n        /* \"#utility.yul\":4658:4682   */\n      tag_82\n      jump\t// in\n    tag_102:\n        /* \"#utility.yul\":4651:4656   */\n      dup2\n        /* \"#utility.yul\":4648:4683   */\n      eq\n        /* \"#utility.yul\":4638:4701   */\n      tag_103\n      jumpi\n        /* \"#utility.yul\":4697:4698   */\n      0x00\n        /* \"#utility.yul\":4694:4695   */\n      dup1\n        /* \"#utility.yul\":4687:4699   */\n      revert\n        /* \"#utility.yul\":4638:4701   */\n    tag_103:\n        /* \"#utility.yul\":4585:4707   */\n      pop\n      jump\t// out\n\n    auxdata: 0xa26469706673582212209f42b291d7cc2a680ef7c1297a492a24383a6237c4ee0adc16f763dd34e1b5bd64736f6c63430008070033\n}\n",
				"bytecode": {
					"linkReferences": {},
					"object": "608060405234801561001057600080fd5b5061041d806100206000396000f3fe608060405234801561001057600080fd5b506004361061004c5760003560e01c80636d4ce63c14610051578063b6a46b3b1461005b578063bc8bc2b414610077578063fee10aee146100a8575b600080fd5b6100596100b2565b005b610075600480360381019061007091906101ee565b6100b4565b005b610091600480360381019061008c919061023b565b6100b8565b60405161009f9291906102b0565b60405180910390f35b6100b0610181565b005b565b5050565b600081815481106100c857600080fd5b90600052602060002090600202016000915090508060000180546100eb90610345565b80601f016020809104026020016040519081016040528092919081815260200182805461011790610345565b80156101645780601f1061013957610100808354040283529160200191610164565b820191906000526020600020905b81548152906001019060200180831161014757829003601f168201915b5050505050908060010160009054906101000a900460ff16905082565b565b60008083601f840112610199576101986103ab565b5b8235905067ffffffffffffffff8111156101b6576101b56103a6565b5b6020830191508360018202830111156101d2576101d16103b0565b5b9250929050565b6000813590506101e8816103d0565b92915050565b60008060208385031215610205576102046103ba565b5b600083013567ffffffffffffffff811115610223576102226103b5565b5b61022f85828601610183565b92509250509250929050565b600060208284031215610251576102506103ba565b5b600061025f848285016101d9565b91505092915050565b610271816102fc565b82525050565b6000610282826102e0565b61028c81856102eb565b935061029c818560208601610312565b6102a5816103bf565b840191505092915050565b600060408201905081810360008301526102ca8185610277565b90506102d96020830184610268565b9392505050565b600081519050919050565b600082825260208201905092915050565b60008115159050919050565b6000819050919050565b60005b83811015610330578082015181840152602081019050610315565b8381111561033f576000848401525b50505050565b6000600282049050600182168061035d57607f821691505b6020821081141561037157610370610377565b5b50919050565b7f4e487b7100000000000000000000000000000000000000000000000000000000600052602260045260246000fd5b600080fd5b600080fd5b600080fd5b600080fd5b600080fd5b6000601f19601f8301169050919050565b6103d981610308565b81146103e457600080fd5b5056fea26469706673582212209f42b291d7cc2a680ef7c1297a492a24383a6237c4ee0adc16f763dd34e1b5bd64736f6c63430008070033",
					"opcodes": "PUSH1 0x80 PUSH1 0x40 MSTORE CALLVALUE DUP1 ISZERO PUSH2 0x10 JUMPI PUSH1 0x0 DUP1 REVERT JUMPDEST POP PUSH2 0x41D DUP1 PUSH2 0x20 PUSH1 0x0 CODECOPY PUSH1 0x0 RETURN INVALID PUSH1 0x80 PUSH1 0x40 MSTORE CALLVALUE DUP1 ISZERO PUSH2 0x10 JUMPI PUSH1 0x0 DUP1 REVERT JUMPDEST POP PUSH1 0x4 CALLDATASIZE LT PUSH2 0x4C JUMPI PUSH1 0x0 CALLDATALOAD PUSH1 0xE0 SHR DUP1 PUSH4 0x6D4CE63C EQ PUSH2 0x51 JUMPI DUP1 PUSH4 0xB6A46B3B EQ PUSH2 0x5B JUMPI DUP1 PUSH4 0xBC8BC2B4 EQ PUSH2 0x77 JUMPI DUP1 PUSH4 0xFEE10AEE EQ PUSH2 0xA8 JUMPI JUMPDEST PUSH1 0x0 DUP1 REVERT JUMPDEST PUSH2 0x59 PUSH2 0xB2 JUMP JUMPDEST STOP JUMPDEST PUSH2 0x75 PUSH1 0x4 DUP1 CALLDATASIZE SUB DUP2 ADD SWAP1 PUSH2 0x70 SWAP2 SWAP1 PUSH2 0x1EE JUMP JUMPDEST PUSH2 0xB4 JUMP JUMPDEST STOP JUMPDEST PUSH2 0x91 PUSH1 0x4 DUP1 CALLDATASIZE SUB DUP2 ADD SWAP1 PUSH2 0x8C SWAP2 SWAP1 PUSH2 0x23B JUMP JUMPDEST PUSH2 0xB8 JUMP JUMPDEST PUSH1 0x40 MLOAD PUSH2 0x9F SWAP3 SWAP2 SWAP1 PUSH2 0x2B0 JUMP JUMPDEST PUSH1 0x40 MLOAD DUP1 SWAP2 SUB SWAP1 RETURN JUMPDEST PUSH2 0xB0 PUSH2 0x181 JUMP JUMPDEST STOP JUMPDEST JUMP JUMPDEST POP POP JUMP JUMPDEST PUSH1 0x0 DUP2 DUP2 SLOAD DUP2 LT PUSH2 0xC8 JUMPI PUSH1 0x0 DUP1 REVERT JUMPDEST SWAP1 PUSH1 0x0 MSTORE PUSH1 0x20 PUSH1 0x0 KECCAK256 SWAP1 PUSH1 0x2 MUL ADD PUSH1 0x0 SWAP2 POP SWAP1 POP DUP1 PUSH1 0x0 ADD DUP1 SLOAD PUSH2 0xEB SWAP1 PUSH2 0x345 JUMP JUMPDEST DUP1 PUSH1 0x1F ADD PUSH1 0x20 DUP1 SWAP2 DIV MUL PUSH1 0x20 ADD PUSH1 0x40 MLOAD SWAP1 DUP2 ADD PUSH1 0x40 MSTORE DUP1 SWAP3 SWAP2 SWAP1 DUP2 DUP2 MSTORE PUSH1 0x20 ADD DUP3 DUP1 SLOAD PUSH2 0x117 SWAP1 PUSH2 0x345 JUMP JUMPDEST DUP1 ISZERO PUSH2 0x164 JUMPI DUP1 PUSH1 0x1F LT PUSH2 0x139 JUMPI PUSH2 0x100 DUP1 DUP4 SLOAD DIV MUL DUP4 MSTORE SWAP2 PUSH1 0x20 ADD SWAP2 PUSH2 0x164 JUMP JUMPDEST DUP3 ADD SWAP2 SWAP1 PUSH1 0x0 MSTORE PUSH1 0x20 PUSH1 0x0 KECCAK256 SWAP1 JUMPDEST DUP2 SLOAD DUP2 MSTORE SWAP1 PUSH1 0x1 ADD SWAP1 PUSH1 0x20 ADD DUP1 DUP4 GT PUSH2 0x147 JUMPI DUP3 SWAP1 SUB PUSH1 0x1F AND DUP3 ADD SWAP2 JUMPDEST POP POP POP POP POP SWAP1 DUP1 PUSH1 0x1 ADD PUSH1 0x0 SWAP1 SLOAD SWAP1 PUSH2 0x100 EXP SWAP1 DIV PUSH1 0xFF AND SWAP1 POP DUP3 JUMP JUMPDEST JUMP JUMPDEST PUSH1 0x0 DUP1 DUP4 PUSH1 0x1F DUP5 ADD SLT PUSH2 0x199 JUMPI PUSH2 0x198 PUSH2 0x3AB JUMP JUMPDEST JUMPDEST DUP3 CALLDATALOAD SWAP1 POP PUSH8 0xFFFFFFFFFFFFFFFF DUP2 GT ISZERO PUSH2 0x1B6 JUMPI PUSH2 0x1B5 PUSH2 0x3A6 JUMP JUMPDEST JUMPDEST PUSH1 0x20 DUP4 ADD SWAP2 POP DUP4 PUSH1 0x1 DUP3 MUL DUP4 ADD GT ISZERO PUSH2 0x1D2 JUMPI PUSH2 0x1D1 PUSH2 0x3B0 JUMP JUMPDEST JUMPDEST SWAP3 POP SWAP3 SWAP1 POP JUMP JUMPDEST PUSH1 0x0 DUP2 CALLDATALOAD SWAP1 POP PUSH2 0x1E8 DUP2 PUSH2 0x3D0 JUMP JUMPDEST SWAP3 SWAP2 POP POP JUMP JUMPDEST PUSH1 0x0 DUP1 PUSH1 0x20 DUP4 DUP6 SUB SLT ISZERO PUSH2 0x205 JUMPI PUSH2 0x204 PUSH2 0x3BA JUMP JUMPDEST JUMPDEST PUSH1 0x0 DUP4 ADD CALLDATALOAD PUSH8 0xFFFFFFFFFFFFFFFF DUP2 GT ISZERO PUSH2 0x223 JUMPI PUSH2 0x222 PUSH2 0x3B5 JUMP JUMPDEST JUMPDEST PUSH2 0x22F DUP6 DUP3 DUP7 ADD PUSH2 0x183 JUMP JUMPDEST SWAP3 POP SWAP3 POP POP SWAP3 POP SWAP3 SWAP1 POP JUMP JUMPDEST PUSH1 0x0 PUSH1 0x20 DUP3 DUP5 SUB SLT ISZERO PUSH2 0x251 JUMPI PUSH2 0x250 PUSH2 0x3BA JUMP JUMPDEST JUMPDEST PUSH1 0x0 PUSH2 0x25F DUP5 DUP3 DUP6 ADD PUSH2 0x1D9 JUMP JUMPDEST SWAP2 POP POP SWAP3 SWAP2 POP POP JUMP JUMPDEST PUSH2 0x271 DUP2 PUSH2 0x2FC JUMP JUMPDEST DUP3 MSTORE POP POP JUMP JUMPDEST PUSH1 0x0 PUSH2 0x282 DUP3 PUSH2 0x2E0 JUMP JUMPDEST PUSH2 0x28C DUP2 DUP6 PUSH2 0x2EB JUMP JUMPDEST SWAP4 POP PUSH2 0x29C DUP2 DUP6 PUSH1 0x20 DUP7 ADD PUSH2 0x312 JUMP JUMPDEST PUSH2 0x2A5 DUP2 PUSH2 0x3BF JUMP JUMPDEST DUP5 ADD SWAP2 POP POP SWAP3 SWAP2 POP POP JUMP JUMPDEST PUSH1 0x0 PUSH1 0x40 DUP3 ADD SWAP1 POP DUP2 DUP2 SUB PUSH1 0x0 DUP4 ADD MSTORE PUSH2 0x2CA DUP2 DUP6 PUSH2 0x277 JUMP JUMPDEST SWAP1 POP PUSH2 0x2D9 PUSH1 0x20 DUP4 ADD DUP5 PUSH2 0x268 JUMP JUMPDEST SWAP4 SWAP3 POP POP POP JUMP JUMPDEST PUSH1 0x0 DUP2 MLOAD SWAP1 POP SWAP2 SWAP1 POP JUMP JUMPDEST PUSH1 0x0 DUP3 DUP3 MSTORE PUSH1 0x20 DUP3 ADD SWAP1 POP SWAP3 SWAP2 POP POP JUMP JUMPDEST PUSH1 0x0 DUP2 ISZERO ISZERO SWAP1 POP SWAP2 SWAP1 POP JUMP JUMPDEST PUSH1 0x0 DUP2 SWAP1 POP SWAP2 SWAP1 POP JUMP JUMPDEST PUSH1 0x0 JUMPDEST DUP4 DUP2 LT ISZERO PUSH2 0x330 JUMPI DUP1 DUP3 ADD MLOAD DUP2 DUP5 ADD MSTORE PUSH1 0x20 DUP2 ADD SWAP1 POP PUSH2 0x315 JUMP JUMPDEST DUP4 DUP2 GT ISZERO PUSH2 0x33F JUMPI PUSH1 0x0 DUP5 DUP5 ADD MSTORE JUMPDEST POP POP POP POP JUMP JUMPDEST PUSH1 0x0 PUSH1 0x2 DUP3 DIV SWAP1 POP PUSH1 0x1 DUP3 AND DUP1 PUSH2 0x35D JUMPI PUSH1 0x7F DUP3 AND SWAP2 POP JUMPDEST PUSH1 0x20 DUP3 LT DUP2 EQ ISZERO PUSH2 0x371 JUMPI PUSH2 0x370 PUSH2 0x377 JUMP JUMPDEST JUMPDEST POP SWAP2 SWAP1 POP JUMP JUMPDEST PUSH32 0x4E487B7100000000000000000000000000000000000000000000000000000000 PUSH1 0x0 MSTORE PUSH1 0x22 PUSH1 0x4 MSTORE PUSH1 0x24 PUSH1 0x0 REVERT JUMPDEST PUSH1 0x0 DUP1 REVERT JUMPDEST PUSH1 0x0 DUP1 REVERT JUMPDEST PUSH1 0x0 DUP1 REVERT JUMPDEST PUSH1 0x0 DUP1 REVERT JUMPDEST PUSH1 0x0 DUP1 REVERT JUMPDEST PUSH1 0x0 PUSH1 0x1F NOT PUSH1 0x1F DUP4 ADD AND SWAP1 POP SWAP2 SWAP1 POP JUMP JUMPDEST PUSH2 0x3D9 DUP2 PUSH2 0x308 JUMP JUMPDEST DUP2 EQ PUSH2 0x3E4 JUMPI PUSH1 0x0 DUP1 REVERT JUMPDEST POP JUMP INVALID LOG2 PUSH5 0x6970667358 0x22 SLT KECCAK256 SWAP16 TIMESTAMP 0xB2 SWAP2 0xD7 0xCC 0x2A PUSH9 0xEF7C1297A492A2438 GASPRICE PUSH3 0x37C4EE EXP 0xDC AND 0xF7 PUSH4 0xDD34E1B5 0xBD PUSH5 0x736F6C6343 STOP ADDMOD SMOD STOP CALLER "
				},
				"gasEstimates": {
					"creation": {
						"codeDepositCost": "210600",
						"executionCost": "251",
						"totalCost": "210851"
					},
					"external": {
						"create(string)": "474",
						"get()": "122",
						"todos(uint256)": "infinite",
						"updateText()": "188"
					}
				},
				"methodIdentifiers": {
					"create(string)": "b6a46b3b",
					"get()": "6d4ce63c",
					"todos(uint256)": "bc8bc2b4",
					"updateText()": "fee10aee"
				}
			},
			"storageLayout": {
				"storage": [
					{
						"astId": 10,
						"contract": "hands-on-task-intermediate-1/TodoList.sol:TodoList",
						"label": "todos",
						"offset": 0,
						"slot": "0",
						"type": "t_array(t_struct(Todo)6_storage)dyn_storage"
					}
				],
				"types": {
					"t_array(t_struct(Todo)6_storage)dyn_storage": {
						"base": "t_struct(Todo)6_storage",
						"encoding": "dynamic_array",
						"label": "struct TodoList.Todo[]",
						"numberOfBytes": "32"
					},
					"t_bool": {
						"encoding": "inplace",
						"label": "bool",
						"numberOfBytes": "1"
					},
					"t_string_storage": {
						"encoding": "bytes",
						"label": "string",
						"numberOfBytes": "32"
					},
					"t_struct(Todo)6_storage": {
						"encoding": "inplace",
						"label": "struct TodoList.Todo",
						"members": [
							{
								"astId": 3,
								"contract": "hands-on-task-intermediate-1/TodoList.sol:TodoList",
								"label": "text",
								"offset": 0,
								"slot": "0",
								"type": "t_string_storage"
							},
							{
								"astId": 5,
								"contract": "hands-on-task-intermediate-1/TodoList.sol:TodoList",
								"label": "completed",
								"offset": 0,
								"slot": "1",
								"type": "t_bool"
							}
						],
						"numberOfBytes": "64"
					}
				}
			},
			"userdoc": {
				"kind": "user",
				"methods": {},
				"version": 1
			}
		}
	}
}