{
	"hands-on-task-beginner-1/Counter.sol": {
		"Counter": {
			"abi": [
				{
					"inputs": [],
					"name": "count",
					"outputs": [
						{
							"internalType": "uint256",
							"name": "",
							"type": "uint256"
						}
					],
					"stateMutability": "view",
					"type": "function"
				},
				{
					"inputs": [],
					"name": "decrease",
					"outputs": [],
					"stateMutability": "nonpayable",
					"type": "function"
				},
				{
					"inputs": [],
					"name": "increase",
					"outputs": [],
					"stateMutability": "nonpayable",
					"type": "function"
				}
			],
			"devdoc": {
				"kind": "dev",
				"methods": {},
				"version": 1
			},
			"evm": {
				"assembly": "    /* \"hands-on-task-beginner-1/Counter.sol\":148:312  contract Counter {... */\n  mstore(0x40, 0x80)\n  callvalue\n  dup1\n  iszero\n  tag_1\n  jumpi\n  0x00\n  dup1\n  revert\ntag_1:\n  pop\n  dataSize(sub_0)\n  dup1\n  dataOffset(sub_0)\n  0x00\n  codecopy\n  0x00\n  return\nstop\n\nsub_0: assembly {\n        /* \"hands-on-task-beginner-1/Counter.sol\":148:312  contract Counter {... */\n      mstore(0x40, 0x80)\n      callvalue\n      dup1\n      iszero\n      tag_1\n      jumpi\n      0x00\n      dup1\n      revert\n    tag_1:\n      pop\n      jumpi(tag_2, lt(calldatasize, 0x04))\n      shr(0xe0, calldataload(0x00))\n      dup1\n      0x06661abd\n      eq\n      tag_3\n      jumpi\n      dup1\n      0xd732d955\n      eq\n      tag_4\n      jumpi\n      dup1\n      0xe8927fbc\n      eq\n      tag_5\n      jumpi\n    tag_2:\n      0x00\n      dup1\n      revert\n        /* \"hands-on-task-beginner-1/Counter.sol\":171:188  uint public count */\n    tag_3:\n      tag_6\n      tag_7\n      jump\t// in\n    tag_6:\n      mload(0x40)\n      tag_8\n      swap2\n      swap1\n      tag_9\n      jump\t// in\n    tag_8:\n      mload(0x40)\n      dup1\n      swap2\n      sub\n      swap1\n      return\n        /* \"hands-on-task-beginner-1/Counter.sol\":254:310  function decrease() external {... */\n    tag_4:\n      tag_10\n      tag_11\n      jump\t// in\n    tag_10:\n      stop\n        /* \"hands-on-task-beginner-1/Counter.sol\":195:248  function increase() external {... */\n    tag_5:\n      tag_12\n      tag_13\n      jump\t// in\n    tag_12:\n      stop\n        /* \"hands-on-task-beginner-1/Counter.sol\":171:188  uint public count */\n    tag_7:\n      sload(0x00)\n      dup2\n      jump\t// out\n        /* \"hands-on-task-beginner-1/Counter.sol\":254:310  function decrease() external {... */\n    tag_11:\n        /* \"hands-on-task-beginner-1/Counter.sol\":302:303  1 */\n      0x01\n        /* \"hands-on-task-beginner-1/Counter.sol\":293:298  count */\n      0x00\n      dup1\n        /* \"hands-on-task-beginner-1/Counter.sol\":293:303  count -= 1 */\n      dup3\n      dup3\n      sload\n      tag_15\n      swap2\n      swap1\n      tag_16\n      jump\t// in\n    tag_15:\n      swap3\n      pop\n      pop\n      dup2\n      swap1\n      sstore\n      pop\n        /* \"hands-on-task-beginner-1/Counter.sol\":254:310  function decrease() external {... */\n      jump\t// out\n        /* \"hands-on-task-beginner-1/Counter.sol\":195:248  function increase() external {... */\n    tag_13:\n        /* \"hands-on-task-beginner-1/Counter.sol\":234:239  count */\n      0x00\n      dup1\n        /* \"hands-on-task-beginner-1/Counter.sol\":234:241  count++ */\n      dup2\n      sload\n      dup1\n      swap3\n      swap2\n      swap1\n      tag_18\n      swap1\n      tag_19\n      jump\t// in\n    tag_18:\n      swap2\n      swap1\n      pop\n      sstore\n      pop\n        /* \"hands-on-task-beginner-1/Counter.sol\":195:248  function increase() external {... */\n      jump\t// out\n        /* \"#utility.yul\":7:125   */\n    tag_21:\n        /* \"#utility.yul\":94:118   */\n      tag_23\n        /* \"#utility.yul\":112:117   */\n      dup2\n        /* \"#utility.yul\":94:118   */\n      tag_24\n      jump\t// in\n    tag_23:\n        /* \"#utility.yul\":89:92   */\n      dup3\n        /* \"#utility.yul\":82:119   */\n      mstore\n        /* \"#utility.yul\":7:125   */\n      pop\n      pop\n      jump\t// out\n        /* \"#utility.yul\":131:353   */\n    tag_9:\n        /* \"#utility.yul\":224:228   */\n      0x00\n        /* \"#utility.yul\":262:264   */\n      0x20\n        /* \"#utility.yul\":251:260   */\n      dup3\n        /* \"#utility.yul\":247:265   */\n      add\n        /* \"#utility.yul\":239:265   */\n      swap1\n      pop\n        /* \"#utility.yul\":275:346   */\n      tag_26\n        /* \"#utility.yul\":343:344   */\n      0x00\n        /* \"#utility.yul\":332:341   */\n      dup4\n        /* \"#utility.yul\":328:345   */\n      add\n        /* \"#utility.yul\":319:325   */\n      dup5\n        /* \"#utility.yul\":275:346   */\n      tag_21\n      jump\t// in\n    tag_26:\n        /* \"#utility.yul\":131:353   */\n      swap3\n      swap2\n      pop\n      pop\n      jump\t// out\n        /* \"#utility.yul\":359:550   */\n    tag_16:\n        /* \"#utility.yul\":399:403   */\n      0x00\n        /* \"#utility.yul\":419:439   */\n      tag_28\n        /* \"#utility.yul\":437:438   */\n      dup3\n        /* \"#utility.yul\":419:439   */\n      tag_24\n      jump\t// in\n    tag_28:\n        /* \"#utility.yul\":414:439   */\n      swap2\n      pop\n        /* \"#utility.yul\":453:473   */\n      tag_29\n        /* \"#utility.yul\":471:472   */\n      dup4\n        /* \"#utility.yul\":453:473   */\n      tag_24\n      jump\t// in\n    tag_29:\n        /* \"#utility.yul\":448:473   */\n      swap3\n      pop\n        /* \"#utility.yul\":492:493   */\n      dup3\n        /* \"#utility.yul\":489:490   */\n      dup3\n        /* \"#utility.yul\":486:494   */\n      lt\n        /* \"#utility.yul\":483:517   */\n      iszero\n      tag_30\n      jumpi\n        /* \"#utility.yul\":497:515   */\n      tag_31\n      tag_32\n      jump\t// in\n    tag_31:\n        /* \"#utility.yul\":483:517   */\n    tag_30:\n        /* \"#utility.yul\":542:543   */\n      dup3\n        /* \"#utility.yul\":539:540   */\n      dup3\n        /* \"#utility.yul\":535:544   */\n      sub\n        /* \"#utility.yul\":527:544   */\n      swap1\n      pop\n        /* \"#utility.yul\":359:550   */\n      swap3\n      swap2\n      pop\n      pop\n      jump\t// out\n        /* \"#utility.yul\":556:633   */\n    tag_24:\n        /* \"#utility.yul\":593:600   */\n      0x00\n        /* \"#utility.yul\":622:627   */\n      dup2\n        /* \"#utility.yul\":611:627   */\n      swap1\n      pop\n        /* \"#utility.yul\":556:633   */\n      swap2\n      swap1\n      pop\n      jump\t// out\n        /* \"#utility.yul\":639:872   */\n    tag_19:\n        /* \"#utility.yul\":678:681   */\n      0x00\n        /* \"#utility.yul\":701:725   */\n      tag_35\n        /* \"#utility.yul\":719:724   */\n      dup3\n        /* \"#utility.yul\":701:725   */\n      tag_24\n      jump\t// in\n    tag_35:\n        /* \"#utility.yul\":692:725   */\n      swap2\n      pop\n        /* \"#utility.yul\":747:813   */\n      0xffffffffffffffffffffffffffffffffffffffffffffffffffffffffffffffff\n        /* \"#utility.yul\":740:745   */\n      dup3\n        /* \"#utility.yul\":737:814   */\n      eq\n        /* \"#utility.yul\":734:837   */\n      iszero\n      tag_36\n      jumpi\n        /* \"#utility.yul\":817:835   */\n      tag_37\n      tag_32\n      jump\t// in\n    tag_37:\n        /* \"#utility.yul\":734:837   */\n    tag_36:\n        /* \"#utility.yul\":864:865   */\n      0x01\n        /* \"#utility.yul\":857:862   */\n      dup3\n        /* \"#utility.yul\":853:866   */\n      add\n        /* \"#utility.yul\":846:866   */\n      swap1\n      pop\n        /* \"#utility.yul\":639:872   */\n      swap2\n      swap1\n      pop\n      jump\t// out\n        /* \"#utility.yul\":878:1058   */\n    tag_32:\n        /* \"#utility.yul\":926:1003   */\n      0x4e487b7100000000000000000000000000000000000000000000000000000000\n        /* \"#utility.yul\":923:924   */\n      0x00\n        /* \"#utility.yul\":916:1004   */\n      mstore\n        /* \"#utility.yul\":1023:1027   */\n      0x11\n        /* \"#utility.yul\":1020:1021   */\n      0x04\n        /* \"#utility.yul\":1013:1028   */\n      mstore\n        /* \"#utility.yul\":1047:1051   */\n      0x24\n        /* \"#utility.yul\":1044:1045   */\n      0x00\n        /* \"#utility.yul\":1037:1052   */\n      revert\n\n    auxdata: 0xa26469706673582212208d4c80f37b9f04ebc834139a1482ac2b63bbb558f10e95d6412c648f4a5011e264736f6c63430008070033\n}\n",
				"bytecode": {
					"linkReferences": {},
					"object": "608060405234801561001057600080fd5b506101c8806100206000396000f3fe608060405234801561001057600080fd5b50600436106100415760003560e01c806306661abd14610046578063d732d95514610064578063e8927fbc1461006e575b600080fd5b61004e610078565b60405161005b91906100c1565b60405180910390f35b61006c61007e565b005b610076610099565b005b60005481565b600160008082825461009091906100dc565b92505081905550565b6000808154809291906100ab9061011a565b9190505550565b6100bb81610110565b82525050565b60006020820190506100d660008301846100b2565b92915050565b60006100e782610110565b91506100f283610110565b92508282101561010557610104610163565b5b828203905092915050565b6000819050919050565b600061012582610110565b91507fffffffffffffffffffffffffffffffffffffffffffffffffffffffffffffffff82141561015857610157610163565b5b600182019050919050565b7f4e487b7100000000000000000000000000000000000000000000000000000000600052601160045260246000fdfea26469706673582212208d4c80f37b9f04ebc834139a1482ac2b63bbb558f10e95d6412c648f4a5011e264736f6c63430008070033",
					"opcodes": "PUSH1 0x80 PUSH1 0x40 MSTORE CALLVALUE DUP1 ISZERO PUSH2 0x10 JUMPI PUSH1 0x0 DUP1 REVERT JUMPDEST POP PUSH2 0x1C8 DUP1 PUSH2 0x20 PUSH1 0x0 CODECOPY PUSH1 0x0 RETURN INVALID PUSH1 0x80 PUSH1 0x40 MSTORE CALLVALUE DUP1 ISZERO PUSH2 0x10 JUMPI PUSH1 0x0 DUP1 REVERT JUMPDEST POP PUSH1 0x4 CALLDATASIZE LT PUSH2 0x41 JUMPI PUSH1 0x0 CALLDATALOAD PUSH1 0xE0 SHR DUP1 PUSH4 0x6661ABD EQ PUSH2 0x46 JUMPI DUP1 PUSH4 0xD732D955 EQ PUSH2 0x64 JUMPI DUP1 PUSH4 0xE8927FBC EQ PUSH2 0x6E JUMPI JUMPDEST PUSH1 0x0 DUP1 REVERT JUMPDEST PUSH2 0x4E PUSH2 0x78 JUMP JUMPDEST PUSH1 0x40 MLOAD PUSH2 0x5B SWAP2 SWAP1 PUSH2 0xC1 JUMP JUMPDEST PUSH1 0x40 MLOAD DUP1 SWAP2 SUB SWAP1 RETURN JUMPDEST PUSH2 0x6C PUSH2 0x7E JUMP JUMPDEST STOP JUMPDEST PUSH2 0x76 PUSH2 0x99 JUMP JUMPDEST STOP JUMPDEST PUSH1 0x0 SLOAD DUP2 JUMP JUMPDEST PUSH1 0x1 PUSH1 0x0 DUP1 DUP3 DUP3 SLOAD PUSH2 0x90 SWAP2 SWAP1 PUSH2 0xDC JUMP JUMPDEST SWAP3 POP POP DUP2 SWAP1 SSTORE POP JUMP JUMPDEST PUSH1 0x0 DUP1 DUP2 SLOAD DUP1 SWAP3 SWAP2 SWAP1 PUSH2 0xAB SWAP1 PUSH2 0x11A JUMP JUMPDEST SWAP2 SWAP1 POP SSTORE POP JUMP JUMPDEST PUSH2 0xBB DUP2 PUSH2 0x110 JUMP JUMPDEST DUP3 MSTORE POP POP JUMP JUMPDEST PUSH1 0x0 PUSH1 0x20 DUP3 ADD SWAP1 POP PUSH2 0xD6 PUSH1 0x0 DUP4 ADD DUP5 PUSH2 0xB2 JUMP JUMPDEST SWAP3 SWAP2 POP POP JUMP JUMPDEST PUSH1 0x0 PUSH2 0xE7 DUP3 PUSH2 0x110 JUMP JUMPDEST SWAP2 POP PUSH2 0xF2 DUP4 PUSH2 0x110 JUMP JUMPDEST SWAP3 POP DUP3 DUP3 LT ISZERO PUSH2 0x105 JUMPI PUSH2 0x104 PUSH2 0x163 JUMP JUMPDEST JUMPDEST DUP3 DUP3 SUB SWAP1 POP SWAP3 SWAP2 POP POP JUMP JUMPDEST PUSH1 0x0 DUP2 SWAP1 POP SWAP2 SWAP1 POP JUMP JUMPDEST PUSH1 0x0 PUSH2 0x125 DUP3 PUSH2 0x110 JUMP JUMPDEST SWAP2 POP PUSH32 0xFFFFFFFFFFFFFFFFFFFFFFFFFFFFFFFFFFFFFFFFFFFFFFFFFFFFFFFFFFFFFFFF DUP3 EQ ISZERO PUSH2 0x158 JUMPI PUSH2 0x157 PUSH2 0x163 JUMP JUMPDEST JUMPDEST PUSH1 0x1 DUP3 ADD SWAP1 POP SWAP2 SWAP1 POP JUMP JUMPDEST PUSH32 0x4E487B7100000000000000000000000000000000000000000000000000000000 PUSH1 0x0 MSTORE PUSH1 0x11 PUSH1 0x4 MSTORE PUSH1 0x24 PUSH1 0x0 REVERT INVALID LOG2 PUSH5 0x6970667358 0x22 SLT KECCAK256 DUP14 0x4C DUP1 RETURN PUSH28 0x9F04EBC834139A1482AC2B63BBB558F10E95D6412C648F4A5011E264 PUSH20 0x6F6C634300080700330000000000000000000000 "
				},
				"gasEstimates": {
					"creation": {
						"codeDepositCost": "91200",
						"executionCost": "141",
						"totalCost": "91341"
					},
					"external": {
						"count()": "2407",
						"decrease()": "infinite",
						"increase()": "24526"
					}
				},
				"methodIdentifiers": {
					"count()": "06661abd",
					"decrease()": "d732d955",
					"increase()": "e8927fbc"
				}
			},
			"storageLayout": {
				"storage": [
					{
						"astId": 3,
						"contract": "hands-on-task-beginner-1/Counter.sol:Counter",
						"label": "count",
						"offset": 0,
						"slot": "0",
						"type": "t_uint256"
					}
				],
				"types": {
					"t_uint256": {
						"encoding": "inplace",
						"label": "uint256",
						"numberOfBytes": "32"
					}
				}
			},
			"userdoc": {
				"kind": "user",
				"methods": {},
				"version": 1
			}
		}
	}
}