{
	"hands-on-task-beginner-1/Counter.sol": {
		"Counter": {
			"abi": [
				{
					"inputs": [],
					"name": "count",
					"outputs": [
						{
							"internalType": "uint256",
							"name": "",
							"type": "uint256"
						}
					],
					"stateMutability": "view",
					"type": "function"
				},
				{
					"inputs": [],
					"name": "decrease",
					"outputs": [],
					"stateMutability": "nonpayable",
					"type": "function"
				},
				{
					"inputs": [],
					"name": "increase",
					"outputs": [],
					"stateMutability": "nonpayable",
					"type": "function"
				}
			],
			"devdoc": {
				"kind": "dev",
				"methods": {},
				"version": 1
			},
			"evm": {
				"assembly": "    /* \"hands-on-task-beginner-1/Counter.sol\":148:309  contract Counter {... */\n  mstore(0x40, 0x80)\n  callvalue\n  dup1\n  iszero\n  tag_1\n  jumpi\n  0x00\n  dup1\n  revert\ntag_1:\n  pop\n  dataSize(sub_0)\n  dup1\n  dataOffset(sub_0)\n  0x00\n  codecopy\n  0x00\n  return\nstop\n\nsub_0: assembly {\n        /* \"hands-on-task-beginner-1/Counter.sol\":148:309  contract Counter {... */\n      mstore(0x40, 0x80)\n      callvalue\n      dup1\n      iszero\n      tag_1\n      jumpi\n      0x00\n      dup1\n      revert\n    tag_1:\n      pop\n      jumpi(tag_2, lt(calldatasize, 0x04))\n      shr(0xe0, calldataload(0x00))\n      dup1\n      0x06661abd\n      eq\n      tag_3\n      jumpi\n      dup1\n      0xd732d955\n      eq\n      tag_4\n      jumpi\n      dup1\n      0xe8927fbc\n      eq\n      tag_5\n      jumpi\n    tag_2:\n      0x00\n      dup1\n      revert\n        /* \"hands-on-task-beginner-1/Counter.sol\":171:188  uint public count */\n    tag_3:\n      tag_6\n      tag_7\n      jump\t// in\n    tag_6:\n      mload(0x40)\n      tag_8\n      swap2\n      swap1\n      tag_9\n      jump\t// in\n    tag_8:\n      mload(0x40)\n      dup1\n      swap2\n      sub\n      swap1\n      return\n        /* \"hands-on-task-beginner-1/Counter.sol\":254:307  function decrease() external {... */\n    tag_4:\n      tag_10\n      tag_11\n      jump\t// in\n    tag_10:\n      stop\n        /* \"hands-on-task-beginner-1/Counter.sol\":195:248  function increase() external {... */\n    tag_5:\n      tag_12\n      tag_13\n      jump\t// in\n    tag_12:\n      stop\n        /* \"hands-on-task-beginner-1/Counter.sol\":171:188  uint public count */\n    tag_7:\n      sload(0x00)\n      dup2\n      jump\t// out\n        /* \"hands-on-task-beginner-1/Counter.sol\":254:307  function decrease() external {... */\n    tag_11:\n        /* \"hands-on-task-beginner-1/Counter.sol\":293:298  count */\n      0x00\n      dup1\n        /* \"hands-on-task-beginner-1/Counter.sol\":293:300  count-- */\n      dup2\n      sload\n      dup1\n      swap3\n      swap2\n      swap1\n      tag_15\n      swap1\n      tag_16\n      jump\t// in\n    tag_15:\n      swap2\n      swap1\n      pop\n      sstore\n      pop\n        /* \"hands-on-task-beginner-1/Counter.sol\":254:307  function decrease() external {... */\n      jump\t// out\n        /* \"hands-on-task-beginner-1/Counter.sol\":195:248  function increase() external {... */\n    tag_13:\n        /* \"hands-on-task-beginner-1/Counter.sol\":234:239  count */\n      0x00\n      dup1\n        /* \"hands-on-task-beginner-1/Counter.sol\":234:241  count++ */\n      dup2\n      sload\n      dup1\n      swap3\n      swap2\n      swap1\n      tag_18\n      swap1\n      tag_19\n      jump\t// in\n    tag_18:\n      swap2\n      swap1\n      pop\n      sstore\n      pop\n        /* \"hands-on-task-beginner-1/Counter.sol\":195:248  function increase() external {... */\n      jump\t// out\n        /* \"#utility.yul\":7:125   */\n    tag_21:\n        /* \"#utility.yul\":94:118   */\n      tag_23\n        /* \"#utility.yul\":112:117   */\n      dup2\n        /* \"#utility.yul\":94:118   */\n      tag_24\n      jump\t// in\n    tag_23:\n        /* \"#utility.yul\":89:92   */\n      dup3\n        /* \"#utility.yul\":82:119   */\n      mstore\n        /* \"#utility.yul\":7:125   */\n      pop\n      pop\n      jump\t// out\n        /* \"#utility.yul\":131:353   */\n    tag_9:\n        /* \"#utility.yul\":224:228   */\n      0x00\n        /* \"#utility.yul\":262:264   */\n      0x20\n        /* \"#utility.yul\":251:260   */\n      dup3\n        /* \"#utility.yul\":247:265   */\n      add\n        /* \"#utility.yul\":239:265   */\n      swap1\n      pop\n        /* \"#utility.yul\":275:346   */\n      tag_26\n        /* \"#utility.yul\":343:344   */\n      0x00\n        /* \"#utility.yul\":332:341   */\n      dup4\n        /* \"#utility.yul\":328:345   */\n      add\n        /* \"#utility.yul\":319:325   */\n      dup5\n        /* \"#utility.yul\":275:346   */\n      tag_21\n      jump\t// in\n    tag_26:\n        /* \"#utility.yul\":131:353   */\n      swap3\n      swap2\n      pop\n      pop\n      jump\t// out\n        /* \"#utility.yul\":359:436   */\n    tag_24:\n        /* \"#utility.yul\":396:403   */\n      0x00\n        /* \"#utility.yul\":425:430   */\n      dup2\n        /* \"#utility.yul\":414:430   */\n      swap1\n      pop\n        /* \"#utility.yul\":359:436   */\n      swap2\n      swap1\n      pop\n      jump\t// out\n        /* \"#utility.yul\":442:613   */\n    tag_16:\n        /* \"#utility.yul\":481:484   */\n      0x00\n        /* \"#utility.yul\":504:528   */\n      tag_29\n        /* \"#utility.yul\":522:527   */\n      dup3\n        /* \"#utility.yul\":504:528   */\n      tag_24\n      jump\t// in\n    tag_29:\n        /* \"#utility.yul\":495:528   */\n      swap2\n      pop\n        /* \"#utility.yul\":550:554   */\n      0x00\n        /* \"#utility.yul\":543:548   */\n      dup3\n        /* \"#utility.yul\":540:555   */\n      eq\n        /* \"#utility.yul\":537:578   */\n      iszero\n      tag_30\n      jumpi\n        /* \"#utility.yul\":558:576   */\n      tag_31\n      tag_32\n      jump\t// in\n    tag_31:\n        /* \"#utility.yul\":537:578   */\n    tag_30:\n        /* \"#utility.yul\":605:606   */\n      0x01\n        /* \"#utility.yul\":598:603   */\n      dup3\n        /* \"#utility.yul\":594:607   */\n      sub\n        /* \"#utility.yul\":587:607   */\n      swap1\n      pop\n        /* \"#utility.yul\":442:613   */\n      swap2\n      swap1\n      pop\n      jump\t// out\n        /* \"#utility.yul\":619:852   */\n    tag_19:\n        /* \"#utility.yul\":658:661   */\n      0x00\n        /* \"#utility.yul\":681:705   */\n      tag_34\n        /* \"#utility.yul\":699:704   */\n      dup3\n        /* \"#utility.yul\":681:705   */\n      tag_24\n      jump\t// in\n    tag_34:\n        /* \"#utility.yul\":672:705   */\n      swap2\n      pop\n        /* \"#utility.yul\":727:793   */\n      0xffffffffffffffffffffffffffffffffffffffffffffffffffffffffffffffff\n        /* \"#utility.yul\":720:725   */\n      dup3\n        /* \"#utility.yul\":717:794   */\n      eq\n        /* \"#utility.yul\":714:817   */\n      iszero\n      tag_35\n      jumpi\n        /* \"#utility.yul\":797:815   */\n      tag_36\n      tag_32\n      jump\t// in\n    tag_36:\n        /* \"#utility.yul\":714:817   */\n    tag_35:\n        /* \"#utility.yul\":844:845   */\n      0x01\n        /* \"#utility.yul\":837:842   */\n      dup3\n        /* \"#utility.yul\":833:846   */\n      add\n        /* \"#utility.yul\":826:846   */\n      swap1\n      pop\n        /* \"#utility.yul\":619:852   */\n      swap2\n      swap1\n      pop\n      jump\t// out\n        /* \"#utility.yul\":858:1038   */\n    tag_32:\n        /* \"#utility.yul\":906:983   */\n      0x4e487b7100000000000000000000000000000000000000000000000000000000\n        /* \"#utility.yul\":903:904   */\n      0x00\n        /* \"#utility.yul\":896:984   */\n      mstore\n        /* \"#utility.yul\":1003:1007   */\n      0x11\n        /* \"#utility.yul\":1000:1001   */\n      0x04\n        /* \"#utility.yul\":993:1008   */\n      mstore\n        /* \"#utility.yul\":1027:1031   */\n      0x24\n        /* \"#utility.yul\":1024:1025   */\n      0x00\n        /* \"#utility.yul\":1017:1032   */\n      revert\n\n    auxdata: 0xa2646970667358221220a822187c2c607152acdaa35f222cd358c404e24f3d61c071304bbcf7cf92e55964736f6c63430008070033\n}\n",
				"bytecode": {
					"linkReferences": {},
					"object": "608060405234801561001057600080fd5b506101bc806100206000396000f3fe608060405234801561001057600080fd5b50600436106100415760003560e01c806306661abd14610046578063d732d95514610064578063e8927fbc1461006e575b600080fd5b61004e610078565b60405161005b91906100bf565b60405180910390f35b61006c61007e565b005b610076610097565b005b60005481565b600080815480929190610090906100e4565b9190505550565b6000808154809291906100a99061010e565b9190505550565b6100b9816100da565b82525050565b60006020820190506100d460008301846100b0565b92915050565b6000819050919050565b60006100ef826100da565b9150600082141561010357610102610157565b5b600182039050919050565b6000610119826100da565b91507fffffffffffffffffffffffffffffffffffffffffffffffffffffffffffffffff82141561014c5761014b610157565b5b600182019050919050565b7f4e487b7100000000000000000000000000000000000000000000000000000000600052601160045260246000fdfea2646970667358221220a822187c2c607152acdaa35f222cd358c404e24f3d61c071304bbcf7cf92e55964736f6c63430008070033",
					"opcodes": "PUSH1 0x80 PUSH1 0x40 MSTORE CALLVALUE DUP1 ISZERO PUSH2 0x10 JUMPI PUSH1 0x0 DUP1 REVERT JUMPDEST POP PUSH2 0x1BC DUP1 PUSH2 0x20 PUSH1 0x0 CODECOPY PUSH1 0x0 RETURN INVALID PUSH1 0x80 PUSH1 0x40 MSTORE CALLVALUE DUP1 ISZERO PUSH2 0x10 JUMPI PUSH1 0x0 DUP1 REVERT JUMPDEST POP PUSH1 0x4 CALLDATASIZE LT PUSH2 0x41 JUMPI PUSH1 0x0 CALLDATALOAD PUSH1 0xE0 SHR DUP1 PUSH4 0x6661ABD EQ PUSH2 0x46 JUMPI DUP1 PUSH4 0xD732D955 EQ PUSH2 0x64 JUMPI DUP1 PUSH4 0xE8927FBC EQ PUSH2 0x6E JUMPI JUMPDEST PUSH1 0x0 DUP1 REVERT JUMPDEST PUSH2 0x4E PUSH2 0x78 JUMP JUMPDEST PUSH1 0x40 MLOAD PUSH2 0x5B SWAP2 SWAP1 PUSH2 0xBF JUMP JUMPDEST PUSH1 0x40 MLOAD DUP1 SWAP2 SUB SWAP1 RETURN JUMPDEST PUSH2 0x6C PUSH2 0x7E JUMP JUMPDEST STOP JUMPDEST PUSH2 0x76 PUSH2 0x97 JUMP JUMPDEST STOP JUMPDEST PUSH1 0x0 SLOAD DUP2 JUMP JUMPDEST PUSH1 0x0 DUP1 DUP2 SLOAD DUP1 SWAP3 SWAP2 SWAP1 PUSH2 0x90 SWAP1 PUSH2 0xE4 JUMP JUMPDEST SWAP2 SWAP1 POP SSTORE POP JUMP JUMPDEST PUSH1 0x0 DUP1 DUP2 SLOAD DUP1 SWAP3 SWAP2 SWAP1 PUSH2 0xA9 SWAP1 PUSH2 0x10E JUMP JUMPDEST SWAP2 SWAP1 POP SSTORE POP JUMP JUMPDEST PUSH2 0xB9 DUP2 PUSH2 0xDA JUMP JUMPDEST DUP3 MSTORE POP POP JUMP JUMPDEST PUSH1 0x0 PUSH1 0x20 DUP3 ADD SWAP1 POP PUSH2 0xD4 PUSH1 0x0 DUP4 ADD DUP5 PUSH2 0xB0 JUMP JUMPDEST SWAP3 SWAP2 POP POP JUMP JUMPDEST PUSH1 0x0 DUP2 SWAP1 POP SWAP2 SWAP1 POP JUMP JUMPDEST PUSH1 0x0 PUSH2 0xEF DUP3 PUSH2 0xDA JUMP JUMPDEST SWAP2 POP PUSH1 0x0 DUP3 EQ ISZERO PUSH2 0x103 JUMPI PUSH2 0x102 PUSH2 0x157 JUMP JUMPDEST JUMPDEST PUSH1 0x1 DUP3 SUB SWAP1 POP SWAP2 SWAP1 POP JUMP JUMPDEST PUSH1 0x0 PUSH2 0x119 DUP3 PUSH2 0xDA JUMP JUMPDEST SWAP2 POP PUSH32 0xFFFFFFFFFFFFFFFFFFFFFFFFFFFFFFFFFFFFFFFFFFFFFFFFFFFFFFFFFFFFFFFF DUP3 EQ ISZERO PUSH2 0x14C JUMPI PUSH2 0x14B PUSH2 0x157 JUMP JUMPDEST JUMPDEST PUSH1 0x1 DUP3 ADD SWAP1 POP SWAP2 SWAP1 POP JUMP JUMPDEST PUSH32 0x4E487B7100000000000000000000000000000000000000000000000000000000 PUSH1 0x0 MSTORE PUSH1 0x11 PUSH1 0x4 MSTORE PUSH1 0x24 PUSH1 0x0 REVERT INVALID LOG2 PUSH5 0x6970667358 0x22 SLT KECCAK256 0xA8 0x22 XOR PUSH29 0x2C607152ACDAA35F222CD358C404E24F3D61C071304BBCF7CF92E55964 PUSH20 0x6F6C634300080700330000000000000000000000 "
				},
				"gasEstimates": {
					"creation": {
						"codeDepositCost": "88800",
						"executionCost": "135",
						"totalCost": "88935"
					},
					"external": {
						"count()": "2407",
						"decrease()": "24504",
						"increase()": "24526"
					}
				},
				"methodIdentifiers": {
					"count()": "06661abd",
					"decrease()": "d732d955",
					"increase()": "e8927fbc"
				}
			},
			"storageLayout": {
				"storage": [
					{
						"astId": 3,
						"contract": "hands-on-task-beginner-1/Counter.sol:Counter",
						"label": "count",
						"offset": 0,
						"slot": "0",
						"type": "t_uint256"
					}
				],
				"types": {
					"t_uint256": {
						"encoding": "inplace",
						"label": "uint256",
						"numberOfBytes": "32"
					}
				}
			},
			"userdoc": {
				"kind": "user",
				"methods": {},
				"version": 1
			}
		}
	}
}